{"contracts/ChildWelfare.sol":{"ChildWelfare":{"abi":[{"anonymous":false,"inputs":[{"indexed":true,"internalType":"uint256","name":"recordId","type":"uint256"},{"indexed":true,"internalType":"address","name":"createdBy","type":"address"},{"indexed":false,"internalType":"string","name":"name","type":"string"}],"name":"RecordCreated","type":"event"},{"inputs":[{"internalType":"string","name":"_name","type":"string"},{"internalType":"uint256","name":"_age","type":"uint256"},{"internalType":"string","name":"_healthStatus","type":"string"},{"internalType":"string","name":"_location","type":"string"},{"internalType":"string","name":"_guardian","type":"string"},{"internalType":"string","name":"_metadata","type":"string"}],"name":"createRecord","outputs":[{"internalType":"uint256","name":"","type":"uint256"}],"stateMutability":"nonpayable","type":"function"},{"inputs":[{"internalType":"uint256","name":"_recordId","type":"uint256"},{"internalType":"string","name":"_reason","type":"string"}],"name":"deactivateRecord","outputs":[],"stateMutability":"nonpayable","type":"function"},{"inputs":[],"name":"getActiveRecords","outputs":[{"components":[{"internalType":"uint256","name":"id","type":"uint256"},{"internalType":"string","name":"name","type":"string"},{"internalType":"uint256","name":"age","type":"uint256"},{"internalType":"string","name":"healthStatus","type":"string"},{"internalType":"string","name":"location","type":"string"},{"internalType":"string","name":"guardian","type":"string"},{"internalType":"string","name":"status","type":"string"},{"internalType":"uint256","name":"createdAt","type":"uint256"},{"internalType":"uint256","name":"lastUpdatedAt","type":"uint256"},{"internalType":"address","name":"createdBy","type":"address"},{"internalType":"address","name":"lastUpdatedBy","type":"address"},{"internalType":"bool","name":"isActive","type":"bool"},{"internalType":"string","name":"metadata","type":"string"}],"internalType":"struct ChildWelfare.ChildRecord[]","name":"","type":"tuple[]"}],"stateMutability":"view","type":"function"},{"inputs":[],"name":"getAllRecords","outputs":[{"components":[{"internalType":"uint256","name":"id","type":"uint256"},{"internalType":"string","name":"name","type":"string"},{"internalType":"uint256","name":"age","type":"uint256"},{"internalType":"string","name":"healthStatus","type":"string"},{"internalType":"string","name":"location","type":"string"},{"internalType":"string","name":"guardian","type":"string"},{"internalType":"string","name":"status","type":"string"},{"internalType":"uint256","name":"createdAt","type":"uint256"},{"internalType":"uint256","name":"lastUpdatedAt","type":"uint256"},{"internalType":"address","name":"createdBy","type":"address"},{"internalType":"address","name":"lastUpdatedBy","type":"address"},{"internalType":"bool","name":"isActive","type":"bool"},{"internalType":"string","name":"metadata","type":"string"}],"internalType":"struct ChildWelfare.ChildRecord[]","name":"","type":"tuple[]"}],"stateMutability":"view","type":"function"},{"inputs":[{"internalType":"uint256","name":"_recordId","type":"uint256"}],"name":"getRecord","outputs":[{"components":[{"internalType":"uint256","name":"id","type":"uint256"},{"internalType":"string","name":"name","type":"string"},{"internalType":"uint256","name":"age","type":"uint256"},{"internalType":"string","name":"healthStatus","type":"string"},{"internalType":"string","name":"location","type":"string"},{"internalType":"string","name":"guardian","type":"string"},{"internalType":"string","name":"status","type":"string"},{"internalType":"uint256","name":"createdAt","type":"uint256"},{"internalType":"uint256","name":"lastUpdatedAt","type":"uint256"},{"internalType":"address","name":"createdBy","type":"address"},{"internalType":"address","name":"lastUpdatedBy","type":"address"},{"internalType":"bool","name":"isActive","type":"bool"},{"internalType":"string","name":"metadata","type":"string"}],"internalType":"struct ChildWelfare.ChildRecord","name":"","type":"tuple"}],"stateMutability":"view","type":"function"},{"inputs":[],"name":"recordCount","outputs":[{"internalType":"uint256","name":"","type":"uint256"}],"stateMutability":"view","type":"function"},{"inputs":[{"internalType":"uint256","name":"","type":"uint256"}],"name":"records","outputs":[{"internalType":"uint256","name":"id","type":"uint256"},{"internalType":"string","name":"name","type":"string"},{"internalType":"uint256","name":"age","type":"uint256"},{"internalType":"string","name":"healthStatus","type":"string"},{"internalType":"string","name":"location","type":"string"},{"internalType":"string","name":"guardian","type":"string"},{"internalType":"string","name":"status","type":"string"},{"internalType":"uint256","name":"createdAt","type":"uint256"},{"internalType":"uint256","name":"lastUpdatedAt","type":"uint256"},{"internalType":"address","name":"createdBy","type":"address"},{"internalType":"address","name":"lastUpdatedBy","type":"address"},{"internalType":"bool","name":"isActive","type":"bool"},{"internalType":"string","name":"metadata","type":"string"}],"stateMutability":"view","type":"function"},{"inputs":[{"internalType":"address","name":"","type":"address"}],"name":"roles","outputs":[{"internalType":"enum ChildWelfare.Role","name":"","type":"uint8"}],"stateMutability":"view","type":"function"},{"inputs":[{"internalType":"address","name":"_user","type":"address"},{"internalType":"enum ChildWelfare.Role","name":"_role","type":"uint8"}],"name":"setRole","outputs":[],"stateMutability":"nonpayable","type":"function"},{"inputs":[{"internalType":"uint256","name":"_recordId","type":"uint256"},{"internalType":"string","name":"_newGuardian","type":"string"},{"internalType":"string","name":"_reason","type":"string"}],"name":"transferGuardianship","outputs":[],"stateMutability":"nonpayable","type":"function"},{"inputs":[{"internalType":"uint256","name":"_recordId","type":"uint256"},{"internalType":"string","name":"_field","type":"string"},{"internalType":"string","name":"_newValue","type":"string"},{"internalType":"string","name":"_reason","type":"string"}],"name":"updateRecord","outputs":[],"stateMutability":"nonpayable","type":"function"}],"evm":{"bytecode":{"linkReferences":{},"object":"6080806040523461001657612433908161001c8239f35b600080fdfe6080604052600436101561001257600080fd5b60003560e01c806303e9e60914611d09578063297f47c014611b6f5780633446106714611a2d578063571c3e60146119e0578063647deef6146116e75780636a947adb14610d54578063900407bc14610d365780639937464214610cf0578063a7f9fe7214610bf0578063de395cce14610a1a5763e5b9b9f61461009557600080fd5b34610a15576080366003190112610a15576001600160401b0360043560248035838111610a15576100ca9036906004016120e5565b604435848111610a15576100e29036906004016120e5565b90606435858111610a15576100fb9036906004016120e5565b60019261010a84548710612195565b61012660ff600a61011a89611f49565b50015460a01c166121d9565b82519260209384820190812061013a61221a565b805190870120036109b257336000526002855260ff60406000205416600481101561099d57860361094a575b7f2361458367e696363fbcc70777d07ebbd2394e89fd0adcaf147faccd1d294d6082518220636e616d6560e01b876040516101a081611fed565b6004815201520361043a575050836101b787611f49565b5001908051908882116104255781906101d08454611f97565b601f81116103d2575b508590601f831160011461036f57600092610364575b5050600019600383901b1c191690851b1790555b600661020e86611f49565b500193815196871161035057506102258454611f97565b601f8111610307575b5081601f8711600114610297575094806102789594938193600a9860009461028c575b50501b916000199060031b1c19161790555b61026c81611f49565b50600842910155611f49565b500180546001600160a01b03191633179055005b015192503880610251565b909591601f198316968560005282600020926000905b8982106102f05750509083929161027897969594600a99106102d7575b505050811b019055610263565b015160001960f88460031b161c191690553880806102ca565b8087859682949686015181550195019301906102ad565b8460005282600020601f880160051c810191848910610346575b601f0160051c019084905b82811061033a57505061022e565b6000815501849061032c565b9091508190610321565b634e487b7160e01b60009081526041600452fd5b0151905038806101ef565b90879350601f1983169185600052876000209260005b898282106103bc57505084116103a3575b505050811b019055610203565b015160001960f88460031b161c19169055388080610396565b8385015186558b97909501949384019301610385565b9091508360005285600020601f840160051c81019187851061041b575b84939291601f8a920160051c01915b82811061040c5750506101d9565b600081558594508991016103fe565b90915081906103ef565b86634e487b7160e01b60005260416004526000fd5b8151812061044661221a565b80519087012003610555575050600361045e87611f49565b5001908051908882116104255781906104778454611f97565b601f8111610502575b508590601f83116001146104b9576000926104ae575b5050600019600383901b1c191690851b179055610203565b015190503880610496565b90879350601f1983169185600052876000209260005b898282106104ec57505084116103a357505050811b019055610203565b8385015186558b979095019493840193016104cf565b9091508360005285600020601f840160051c81019187851061054b575b84939291601f8a920160051c01915b82811061053c575050610480565b6000815585945089910161052e565b909150819061051f565b7f32418106fd89af94305d9787acb608a501b749f5f1783cfca7b3f864595254ca82518220673637b1b0ba34b7b760c11b8760405161059381611fed565b6008815201520361069657505060046105ab87611f49565b5001908051908882116104255781906105c48454611f97565b601f8111610643575b508590601f83116001146105fa576000926104ae575050600019600383901b1c191690851b179055610203565b90879350601f1983169185600052876000209260005b8982821061062d57505084116103a357505050811b019055610203565b8385015186558b97909501949384019301610610565b9091508360005285600020601f840160051c81019187851061068c575b84939291601f8a920160051c01915b82811061067d5750506105cd565b6000815585945089910161066f565b9091508190610660565b7f8fbcb4375b910093bcf636b6b2f26b26eda2a29ef5a8ee7de44b5743c3bf9a28825182206733bab0b93234b0b760c11b876040516106d481611fed565b600881520152036107d757505060056106ec87611f49565b5001908051908882116104255781906107058454611f97565b601f8111610784575b508590601f831160011461073b576000926104ae575050600019600383901b1c191690851b179055610203565b90879350601f1983169185600052876000209260005b8982821061076e57505084116103a357505050811b019055610203565b8385015186558b97909501949384019301610751565b9091508360005285600020601f840160051c8101918785106107cd575b84939291601f8a920160051c01915b8281106107be57505061070e565b600081558594508991016107b0565b90915081906107a1565b7f7a9d3a032b8ff274f09714b56ba8e5ed776ec9638ca303069bc3a3267bb22f6591519020676d6574616461746160c01b8560405161081581611fed565b6008815201520361091657600b61082b87611f49565b5001908051908882116104255781906108448454611f97565b601f81116108c3575b508590601f831160011461087a576000926104ae575050600019600383901b1c191690851b179055610203565b90879350601f1983169185600052876000209260005b898282106108ad57505084116103a357505050811b019055610203565b8385015186558b97909501949384019301610890565b9091508360005285600020601f840160051c81019187851061090c575b84939291601f8a920160051c01915b8281106108fd57505061084d565b600081558594508991016108ef565b90915081906108e0565b60405162461bcd60e51b815260048101849052600d818701526c125b9d985b1a5908199a595b19609a1b6044820152606490fd5b60405162461bcd60e51b8152600481018690526026818901527f4f6e6c7920486f73706974616c2063616e20757064617465206865616c74682060448201526573746174757360d01b6064820152608490fd5b87634e487b7160e01b60005260216004526000fd5b336000526002855260ff60406000205416600481101561099d57156101665760405162461bcd60e51b815260048101869052601b818901527f4f6e6c79204e474f2063616e20757064617465207265636f72647300000000006044820152606490fd5b600080fd5b34610a15576040366003190112610a15576001600160401b03600435602435828111610a1557610a4e9036906004016120e5565b3360005260206002815260ff604060002054166004811015610bda57610a74901561213b565b600190610a8382548510612195565b600a610a8e85611f49565b5001805460ff60a01b191690556006610aa685611f49565b5001928051958611610bc457610abc8454611f97565b601f8111610b7b575b5081601f8711600114610b0c575094806102789594938193600a98600094610b015750501b916000199060031b1c191617905561026c81611f49565b015192508880610251565b909591601f198316968560005282600020926000905b898210610b645750509083929161027897969594600a9910610b4b57505050811b019055610263565b015160001960f88460031b161c191690558680806102ca565b808785968294968601518155019501930190610b22565b8460005282600020601f880160051c810191848910610bba575b601f0160051c019084905b828110610bae575050610ac5565b60008155018490610ba0565b9091508190610b95565b634e487b7160e01b600052604160045260246000fd5b634e487b7160e01b600052602160045260246000fd5b34610a15576000366003190112610a15573360005260206002815260ff60406000205416600481101580610bda578115908115610ce3575b8115610cd2575b8115610cbf575b50610c4191506122a4565b600054610c4d816123bc565b90610c5b6040519283612008565b80825260008080527f290decd9548b62a8d60345a988386fc84ba6bc95484008f6362f93160ef3e563938084015b838310610ca25760405180610c9e8782611ee7565b0390f35b600c82600192610cb1896122f0565b815201960192019194610c89565b9050610bda576003610c41911483610c36565b809150610bda576002821490610c2f565b5050600181146000610c28565b34610a15576020366003190112610a15576001600160a01b03610d116120cf565b16600052600260205260ff604060002054166040516004821015610bda576020918152f35b34610a15576000366003190112610a15576020600154604051908152f35b34610a155760c0366003190112610a15576004356001600160401b038111610a1557610d849036906004016120e5565b6024356044356001600160401b038111610a1557610da69036906004016120e5565b6064356001600160401b038111610a1557610dc59036906004016120e5565b6084356001600160401b038111610a1557610de49036906004016120e5565b9060a4356001600160401b038111610a1557610e049036906004016120e5565b9233600052600260205260ff604060002054166004811015610bda57610e2a901561213b565b601285116116a2576001549460405195610e4387611fd1565b865286602087015260408601526060850152608084015260a0830152604051610e6b81611fed565b600681526541637469766560d01b602082015260c08301524260e0830152426101008301523361012083015233610140830152600161016083015261018082015260005468010000000000000000811015610bc457806001610ed09201600055611f49565b92909261168c578151835560208201519283516001600160401b038111610bc457610efe6001830154611f97565b601f8111611645575b506020601f82116001146115d65781929394956000926115cb575b50508160011b916000199060031b1c19161760018201555b6040830151600282015560608301519283516001600160401b038111610bc457610f676003840154611f97565b601f8111611584575b506020601f821160011461151557819293949560009261150a575b50508160011b916000199060031b1c19161760038301555b60808101519283516001600160401b038111610bc457610fc66004850154611f97565b601f81116114c3575b506020601f8211600114611454578192939495600092611449575b50508160011b916000199060031b1c19161760048401555b60a08201519283516001600160401b038111610bc4576110256005830154611f97565b601f8111611402575b506020601f8211600114611393578192939495600092611388575b50508160011b916000199060031b1c19161760058201555b60c08301518051906001600160401b038211610bc4576110846006840154611f97565b601f8111611341575b50602090601f83116001146112cb5791806101809492600b946000926112c0575b50508160011b916000199060031b1c19161760068201555b60e0850151600782015561010085015160088201556009810160018060a01b039081610120880151166bffffffffffffffffffffffff60a01b825416179055600a8201906101408701511681549060ff60a01b610160890151151560a01b16916affffffffffffffffffffff60a81b1617179055019201519182516001600160401b038111610bc4576111598254611f97565b601f8111611278575b506020601f82116001146112125781929394600092611207575b50508160011b916000199060031b1c19161790555b61119c600154612186565b8060015560001981019081116111f157602091817f99a9454438287bd513ed7da46fc0ff0cabc6b573eeafb583a59e01bc2e52ef90604051858152806111e6339588830190611dcd565b0390a3604051908152f35b634e487b7160e01b600052601160045260246000fd5b01519050848061117c565b601f198216908360005260206000209160005b81811061126057509583600195969710611247575b505050811b019055611191565b015160001960f88460031b161c1916905584808061123a565b9192602060018192868b015181550194019201611225565b826000526020600020601f830160051c810191602084106112b6575b601f0160051c01905b8181106112aa5750611162565b6000815560010161129d565b9091508190611294565b0151905087806110ae565b906006840160005260206000209160005b601f19851681106113295750926101809492600192600b9583601f19811610611310575b505050811b0160068201556110c6565b015160001960f88460031b161c19169055878080611300565b919260206001819286850151815501940192016112dc565b600684016000526020600020601f840160051c810160208510611381575b601f830160051c8201811061137557505061108d565b6000815560010161135f565b508061135f565b015190508580611049565b6005830160005260206000209060005b601f19841681106113ea575060019394959683601f198116106113d1575b505050811b016005820155611061565b015160001960f88460031b161c191690558580806113c1565b9091602060018192858b0151815501930191016113a3565b600583016000526020600020601f830160051c810160208410611442575b601f830160051c8201811061143657505061102e565b60008155600101611420565b5080611420565b015190508580610fea565b6004850160005260206000209060005b601f19841681106114ab575060019394959683601f19811610611492575b505050811b016004840155611002565b015160001960f88460031b161c19169055858080611482565b9091602060018192858b015181550193019101611464565b600485016000526020600020601f830160051c810160208410611503575b601f830160051c820181106114f7575050610fcf565b600081556001016114e1565b50806114e1565b015190508580610f8b565b6003840160005260206000209060005b601f198416811061156c575060019394959683601f19811610611553575b505050811b016003830155610fa3565b015160001960f88460031b161c19169055858080611543565b9091602060018192858b015181550193019101611525565b600384016000526020600020601f830160051c8101602084106115c4575b601f830160051c820181106115b8575050610f70565b600081556001016115a2565b50806115a2565b015190508580610f22565b6001830160005260206000209060005b601f198416811061162d575060019394959683601f19811610611614575b505050811b016001820155610f3a565b015160001960f88460031b161c19169055858080611604565b9091602060018192858b0151815501930191016115e6565b600183016000526020600020601f830160051c810160208410611685575b601f830160051c82018110611679575050610f07565b60008155600101611663565b5080611663565b634e487b7160e01b600052600060045260246000fd5b60405162461bcd60e51b815260206004820152601960248201527f416765206d757374206265203138206f7220796f756e676572000000000000006044820152606490fd5b34610a15576060366003190112610a15576001600160401b03600435602435828111610a155761171b9036906004016120e5565b604435838111610a15576117339036906004016120e5565b336000526020916002835260ff604060002054166004811015610bda5760020361198b5760019161176683548610612195565b61177660ff600a61011a88611f49565b600561178186611f49565b50018251878111610bc457806117978354611f97565b94601f9586811161193a575b5087908683116001146118d7576000926118cc575b5050600019600383901b1c191690851b1790555b60066117d786611f49565b5001938151968711610bc4576117ed8554611f97565b838111611886575b5080928711600114611830575094806102789594938193600a98600094610b015750501b916000199060031b1c191617905561026c81611f49565b909591601f198316968560005282600020926000905b89821061186f5750509083929161027897969594600a9910610b4b57505050811b019055610263565b808785968294968601518155019501930190611846565b856000528160002084808a0160051c820192848b106118c3575b0160051c019085905b8281106118b75750506117f5565b600081550185906118a9565b925081926118a0565b0151905089806117b8565b90879350601f1983169185600052896000209260005b8b828210611924575050841161190b575b505050811b0190556117cc565b015160001960f88460031b161c191690558980806118fe565b8385015186558b979095019493840193016118ed565b90915083600052876000208680850160051c8201928a8610611982575b918991869594930160051c01915b8281106119735750506117a3565b60008155859450899101611965565b92508192611957565b60405162461bcd60e51b815260048101849052602760248201527f4f6e6c7920476f7665726e6d656e742063616e20706572666f726d20746869736044820152661030b1ba34b7b760c91b6064820152608490fd5b34610a15576040366003190112610a15576119f96120cf565b602435906004821015610a155760018060a01b0316600052600260205260406000209060ff80198354169116179055600080f35b34610a15576020366003190112610a1557600435600054811015610a1557611a5490611f49565b508054611a6360018301612029565b60028301549092611a7660038201612029565b90611a8360048201612029565b611a8f60058301612029565b92611a9c60068401612029565b93600784015494600885015491600160a01b60019003948560098801541694600a88015497600b01611acd90612029565b996040519c8d9c8d528c6101a06020819201528d01611aeb91611dcd565b9060408d01528b810360608d0152611b0291611dcd565b8a810360808c0152611b1391611dcd565b89810360a08b0152611b2491611dcd565b88810360c08a0152611b3591611dcd565b9460e0880152610100870152610120860152811661014085015260a01c60ff161515610160840152828103610180840152610c9e91611dcd565b34610a15576000366003190112610a15573360005260206002815260ff908160406000205416600481101580610bda578115908115611cfc575b8115611ceb575b8115611cd8575b50611bc291506122a4565b600091600091600154925b838110611c9d5750611bde846123bc565b93611bec6040519586612008565b808552611bfb601f19916123bc565b0160005b818110611c875750505060009060005b838110611c245760405180610c9e8782611ee7565b81600a611c3083611f49565b50015460a01c16611c4a575b611c4590612186565b611c0f565b91611c7f611c4591611c64611c5e86611f49565b506122f0565b611c6e82896123d3565b52611c7981886123d3565b50612186565b929050611c3c565b8290611c91612242565b82828901015201611bff565b82600a611ca983611f49565b50015460a01c16611cc3575b611cbe90612186565b611bcd565b93611cd0611cbe91612186565b949050611cb5565b9050610bda576003611bc2911484611bb7565b809150610bda576002821490611bb0565b5050600181146000611ba9565b34610a15576020366003190112610a1557600435611d25612242565b5033600052600260205260ff604060002054169060048210159182610bda578015928315611dbf575b8315611dae575b8315611d95575b610c9e611d81611c5e85611d6f886122a4565b611d7c6001548210612195565b611f49565b604051918291602083526020830190611e0d565b909250610bda5760039190911490611c5e611d81611d5c565b809350610bda576002811492611d55565b506001811492506000611d4e565b919082519283825260005b848110611df9575050826000602080949584010152601f8019910116010190565b602081830181015184830182015201611dd8565b90611ee49180518252611e8d611e7b611e69611e57611e3b60208601516101a08060208a0152880190611dcd565b6040860151604088015260608601518782036060890152611dcd565b60808501518682036080880152611dcd565b60a084015185820360a0870152611dcd565b60c083015184820360c0860152611dcd565b9160e082015160e0820152610100808301519082015260018060a01b036101208181850151169083015261014090818401511690820152610160808301511515908201526101808092015191818403910152611dcd565b90565b602080820190808352835180925260408301928160408460051b8301019501936000915b848310611f1b5750505050505090565b9091929394958480611f39600193603f198682030187528a51611e0d565b9801930193019194939290611f0b565b906000918254811015611f8357600c90838052027f290decd9548b62a8d60345a988386fc84ba6bc95484008f6362f93160ef3e563019190565b634e487b7160e01b83526032600452602483fd5b90600182811c92168015611fc7575b6020831014611fb157565b634e487b7160e01b600052602260045260246000fd5b91607f1691611fa6565b6101a081019081106001600160401b03821117610bc457604052565b604081019081106001600160401b03821117610bc457604052565b90601f801991011681019081106001600160401b03821117610bc457604052565b906040519182600082549261203d84611f97565b9081845260019485811690816000146120ac5750600114612069575b505061206792500383612008565b565b9093915060005260209081600020936000915b81831061209457505061206793508201013880612059565b8554888401850152948501948794509183019161207c565b91505061206794506020925060ff191682840152151560051b8201013880612059565b600435906001600160a01b0382168203610a1557565b81601f82011215610a15578035906001600160401b038211610bc45760405192612119601f8401601f191660200185612008565b82845260208383010111610a1557816000926020809301838601378301015290565b1561214257565b606460405162461bcd60e51b815260206004820152602060248201527f4f6e6c79204e474f2063616e20706572666f726d207468697320616374696f6e6044820152fd5b60001981146111f15760010190565b1561219c57565b60405162461bcd60e51b8152602060048201526015602482015274149958dbdc9908191bd95cc81b9bdd08195e1a5cdd605a1b6044820152606490fd5b156121e057565b60405162461bcd60e51b81526020600482015260126024820152715265636f726420697320696e61637469766560701b6044820152606490fd5b6040519061222782611fed565b600c82526b6865616c746853746174757360a01b6020830152565b6040519061224f82611fd1565b8161018060009182815260609283602083015280604083015283808301528360808301528360a08301528360c08301528060e08301528061010083015280610120830152806101408301526101608201520152565b156122ab57565b60405162461bcd60e51b815260206004820152601b60248201527f4163636573732064656e6965643a20696e76616c696420726f6c6500000000006044820152606490fd5b906040516122fd81611fd1565b6101806123b7600b83958054855261231760018201612029565b60208601526002810154604086015261233260038201612029565b606086015261234360048201612029565b608086015261235460058201612029565b60a086015261236560068201612029565b60c0860152600781015460e0860152600881015461010086015260098101546001600160a01b03908116610120870152600a82015490811661014087015260a01c60ff16151561016086015201612029565b910152565b6001600160401b038111610bc45760051b60200190565b80518210156123e75760209160051b010190565b634e487b7160e01b600052603260045260246000fdfea26469706673582212203c48b27ab146049f09310c835a99202fa8988d4c32b7d3f968e46d7972df784264736f6c63430008130033","opcodes":"PUSH1 0x80 DUP1 PUSH1 0x40 MSTORE CALLVALUE PUSH2 0x16 JUMPI PUSH2 0x2433 SWAP1 DUP2 PUSH2 0x1C DUP3 CODECOPY RETURN JUMPDEST PUSH1 0x0 DUP1 REVERT INVALID PUSH1 0x80 PUSH1 0x40 MSTORE PUSH1 0x4 CALLDATASIZE LT ISZERO PUSH2 0x12 JUMPI PUSH1 0x0 DUP1 REVERT JUMPDEST PUSH1 0x0 CALLDATALOAD PUSH1 0xE0 SHR DUP1 PUSH4 0x3E9E609 EQ PUSH2 0x1D09 JUMPI DUP1 PUSH4 0x297F47C0 EQ PUSH2 0x1B6F JUMPI DUP1 PUSH4 0x34461067 EQ PUSH2 0x1A2D JUMPI DUP1 PUSH4 0x571C3E60 EQ PUSH2 0x19E0 JUMPI DUP1 PUSH4 0x647DEEF6 EQ PUSH2 0x16E7 JUMPI DUP1 PUSH4 0x6A947ADB EQ PUSH2 0xD54 JUMPI DUP1 PUSH4 0x900407BC EQ PUSH2 0xD36 JUMPI DUP1 PUSH4 0x99374642 EQ PUSH2 0xCF0 JUMPI DUP1 PUSH4 0xA7F9FE72 EQ PUSH2 0xBF0 JUMPI DUP1 PUSH4 0xDE395CCE EQ PUSH2 0xA1A JUMPI PUSH4 0xE5B9B9F6 EQ PUSH2 0x95 JUMPI PUSH1 0x0 DUP1 REVERT JUMPDEST CALLVALUE PUSH2 0xA15 JUMPI PUSH1 0x80 CALLDATASIZE PUSH1 0x3 NOT ADD SLT PUSH2 0xA15 JUMPI PUSH1 0x1 PUSH1 0x1 PUSH1 0x40 SHL SUB PUSH1 0x4 CALLDATALOAD PUSH1 0x24 DUP1 CALLDATALOAD DUP4 DUP2 GT PUSH2 0xA15 JUMPI PUSH2 0xCA SWAP1 CALLDATASIZE SWAP1 PUSH1 0x4 ADD PUSH2 0x20E5 JUMP JUMPDEST PUSH1 0x44 CALLDATALOAD DUP5 DUP2 GT PUSH2 0xA15 JUMPI PUSH2 0xE2 SWAP1 CALLDATASIZE SWAP1 PUSH1 0x4 ADD PUSH2 0x20E5 JUMP JUMPDEST SWAP1 PUSH1 0x64 CALLDATALOAD DUP6 DUP2 GT PUSH2 0xA15 JUMPI PUSH2 0xFB SWAP1 CALLDATASIZE SWAP1 PUSH1 0x4 ADD PUSH2 0x20E5 JUMP JUMPDEST PUSH1 0x1 SWAP3 PUSH2 0x10A DUP5 SLOAD DUP8 LT PUSH2 0x2195 JUMP JUMPDEST PUSH2 0x126 PUSH1 0xFF PUSH1 0xA PUSH2 0x11A DUP10 PUSH2 0x1F49 JUMP JUMPDEST POP ADD SLOAD PUSH1 0xA0 SHR AND PUSH2 0x21D9 JUMP JUMPDEST DUP3 MLOAD SWAP3 PUSH1 0x20 SWAP4 DUP5 DUP3 ADD SWAP1 DUP2 KECCAK256 PUSH2 0x13A PUSH2 0x221A JUMP JUMPDEST DUP1 MLOAD SWAP1 DUP8 ADD KECCAK256 SUB PUSH2 0x9B2 JUMPI CALLER PUSH1 0x0 MSTORE PUSH1 0x2 DUP6 MSTORE PUSH1 0xFF PUSH1 0x40 PUSH1 0x0 KECCAK256 SLOAD AND PUSH1 0x4 DUP2 LT ISZERO PUSH2 0x99D JUMPI DUP7 SUB PUSH2 0x94A JUMPI JUMPDEST PUSH32 0x2361458367E696363FBCC70777D07EBBD2394E89FD0ADCAF147FACCD1D294D60 DUP3 MLOAD DUP3 KECCAK256 PUSH4 0x6E616D65 PUSH1 0xE0 SHL DUP8 PUSH1 0x40 MLOAD PUSH2 0x1A0 DUP2 PUSH2 0x1FED JUMP JUMPDEST PUSH1 0x4 DUP2 MSTORE ADD MSTORE SUB PUSH2 0x43A JUMPI POP POP DUP4 PUSH2 0x1B7 DUP8 PUSH2 0x1F49 JUMP JUMPDEST POP ADD SWAP1 DUP1 MLOAD SWAP1 DUP9 DUP3 GT PUSH2 0x425 JUMPI DUP2 SWAP1 PUSH2 0x1D0 DUP5 SLOAD PUSH2 0x1F97 JUMP JUMPDEST PUSH1 0x1F DUP2 GT PUSH2 0x3D2 JUMPI JUMPDEST POP DUP6 SWAP1 PUSH1 0x1F DUP4 GT PUSH1 0x1 EQ PUSH2 0x36F JUMPI PUSH1 0x0 SWAP3 PUSH2 0x364 JUMPI JUMPDEST POP POP PUSH1 0x0 NOT PUSH1 0x3 DUP4 SWAP1 SHL SHR NOT AND SWAP1 DUP6 SHL OR SWAP1 SSTORE JUMPDEST PUSH1 0x6 PUSH2 0x20E DUP7 PUSH2 0x1F49 JUMP JUMPDEST POP ADD SWAP4 DUP2 MLOAD SWAP7 DUP8 GT PUSH2 0x350 JUMPI POP PUSH2 0x225 DUP5 SLOAD PUSH2 0x1F97 JUMP JUMPDEST PUSH1 0x1F DUP2 GT PUSH2 0x307 JUMPI JUMPDEST POP DUP2 PUSH1 0x1F DUP8 GT PUSH1 0x1 EQ PUSH2 0x297 JUMPI POP SWAP5 DUP1 PUSH2 0x278 SWAP6 SWAP5 SWAP4 DUP2 SWAP4 PUSH1 0xA SWAP9 PUSH1 0x0 SWAP5 PUSH2 0x28C JUMPI JUMPDEST POP POP SHL SWAP2 PUSH1 0x0 NOT SWAP1 PUSH1 0x3 SHL SHR NOT AND OR SWAP1 SSTORE JUMPDEST PUSH2 0x26C DUP2 PUSH2 0x1F49 JUMP JUMPDEST POP PUSH1 0x8 TIMESTAMP SWAP2 ADD SSTORE PUSH2 0x1F49 JUMP JUMPDEST POP ADD DUP1 SLOAD PUSH1 0x1 PUSH1 0x1 PUSH1 0xA0 SHL SUB NOT AND CALLER OR SWAP1 SSTORE STOP JUMPDEST ADD MLOAD SWAP3 POP CODESIZE DUP1 PUSH2 0x251 JUMP JUMPDEST SWAP1 SWAP6 SWAP2 PUSH1 0x1F NOT DUP4 AND SWAP7 DUP6 PUSH1 0x0 MSTORE DUP3 PUSH1 0x0 KECCAK256 SWAP3 PUSH1 0x0 SWAP1 JUMPDEST DUP10 DUP3 LT PUSH2 0x2F0 JUMPI POP POP SWAP1 DUP4 SWAP3 SWAP2 PUSH2 0x278 SWAP8 SWAP7 SWAP6 SWAP5 PUSH1 0xA SWAP10 LT PUSH2 0x2D7 JUMPI JUMPDEST POP POP POP DUP2 SHL ADD SWAP1 SSTORE PUSH2 0x263 JUMP JUMPDEST ADD MLOAD PUSH1 0x0 NOT PUSH1 0xF8 DUP5 PUSH1 0x3 SHL AND SHR NOT AND SWAP1 SSTORE CODESIZE DUP1 DUP1 PUSH2 0x2CA JUMP JUMPDEST DUP1 DUP8 DUP6 SWAP7 DUP3 SWAP5 SWAP7 DUP7 ADD MLOAD DUP2 SSTORE ADD SWAP6 ADD SWAP4 ADD SWAP1 PUSH2 0x2AD JUMP JUMPDEST DUP5 PUSH1 0x0 MSTORE DUP3 PUSH1 0x0 KECCAK256 PUSH1 0x1F DUP9 ADD PUSH1 0x5 SHR DUP2 ADD SWAP2 DUP5 DUP10 LT PUSH2 0x346 JUMPI JUMPDEST PUSH1 0x1F ADD PUSH1 0x5 SHR ADD SWAP1 DUP5 SWAP1 JUMPDEST DUP3 DUP2 LT PUSH2 0x33A JUMPI POP POP PUSH2 0x22E JUMP JUMPDEST PUSH1 0x0 DUP2 SSTORE ADD DUP5 SWAP1 PUSH2 0x32C JUMP JUMPDEST SWAP1 SWAP2 POP DUP2 SWAP1 PUSH2 0x321 JUMP JUMPDEST PUSH4 0x4E487B71 PUSH1 0xE0 SHL PUSH1 0x0 SWAP1 DUP2 MSTORE PUSH1 0x41 PUSH1 0x4 MSTORE REVERT JUMPDEST ADD MLOAD SWAP1 POP CODESIZE DUP1 PUSH2 0x1EF JUMP JUMPDEST SWAP1 DUP8 SWAP4 POP PUSH1 0x1F NOT DUP4 AND SWAP2 DUP6 PUSH1 0x0 MSTORE DUP8 PUSH1 0x0 KECCAK256 SWAP3 PUSH1 0x0 JUMPDEST DUP10 DUP3 DUP3 LT PUSH2 0x3BC JUMPI POP POP DUP5 GT PUSH2 0x3A3 JUMPI JUMPDEST POP POP POP DUP2 SHL ADD SWAP1 SSTORE PUSH2 0x203 JUMP JUMPDEST ADD MLOAD PUSH1 0x0 NOT PUSH1 0xF8 DUP5 PUSH1 0x3 SHL AND SHR NOT AND SWAP1 SSTORE CODESIZE DUP1 DUP1 PUSH2 0x396 JUMP JUMPDEST DUP4 DUP6 ADD MLOAD DUP7 SSTORE DUP12 SWAP8 SWAP1 SWAP6 ADD SWAP5 SWAP4 DUP5 ADD SWAP4 ADD PUSH2 0x385 JUMP JUMPDEST SWAP1 SWAP2 POP DUP4 PUSH1 0x0 MSTORE DUP6 PUSH1 0x0 KECCAK256 PUSH1 0x1F DUP5 ADD PUSH1 0x5 SHR DUP2 ADD SWAP2 DUP8 DUP6 LT PUSH2 0x41B JUMPI JUMPDEST DUP5 SWAP4 SWAP3 SWAP2 PUSH1 0x1F DUP11 SWAP3 ADD PUSH1 0x5 SHR ADD SWAP2 JUMPDEST DUP3 DUP2 LT PUSH2 0x40C JUMPI POP POP PUSH2 0x1D9 JUMP JUMPDEST PUSH1 0x0 DUP2 SSTORE DUP6 SWAP5 POP DUP10 SWAP2 ADD PUSH2 0x3FE JUMP JUMPDEST SWAP1 SWAP2 POP DUP2 SWAP1 PUSH2 0x3EF JUMP JUMPDEST DUP7 PUSH4 0x4E487B71 PUSH1 0xE0 SHL PUSH1 0x0 MSTORE PUSH1 0x41 PUSH1 0x4 MSTORE PUSH1 0x0 REVERT JUMPDEST DUP2 MLOAD DUP2 KECCAK256 PUSH2 0x446 PUSH2 0x221A JUMP JUMPDEST DUP1 MLOAD SWAP1 DUP8 ADD KECCAK256 SUB PUSH2 0x555 JUMPI POP POP PUSH1 0x3 PUSH2 0x45E DUP8 PUSH2 0x1F49 JUMP JUMPDEST POP ADD SWAP1 DUP1 MLOAD SWAP1 DUP9 DUP3 GT PUSH2 0x425 JUMPI DUP2 SWAP1 PUSH2 0x477 DUP5 SLOAD PUSH2 0x1F97 JUMP JUMPDEST PUSH1 0x1F DUP2 GT PUSH2 0x502 JUMPI JUMPDEST POP DUP6 SWAP1 PUSH1 0x1F DUP4 GT PUSH1 0x1 EQ PUSH2 0x4B9 JUMPI PUSH1 0x0 SWAP3 PUSH2 0x4AE JUMPI JUMPDEST POP POP PUSH1 0x0 NOT PUSH1 0x3 DUP4 SWAP1 SHL SHR NOT AND SWAP1 DUP6 SHL OR SWAP1 SSTORE PUSH2 0x203 JUMP JUMPDEST ADD MLOAD SWAP1 POP CODESIZE DUP1 PUSH2 0x496 JUMP JUMPDEST SWAP1 DUP8 SWAP4 POP PUSH1 0x1F NOT DUP4 AND SWAP2 DUP6 PUSH1 0x0 MSTORE DUP8 PUSH1 0x0 KECCAK256 SWAP3 PUSH1 0x0 JUMPDEST DUP10 DUP3 DUP3 LT PUSH2 0x4EC JUMPI POP POP DUP5 GT PUSH2 0x3A3 JUMPI POP POP POP DUP2 SHL ADD SWAP1 SSTORE PUSH2 0x203 JUMP JUMPDEST DUP4 DUP6 ADD MLOAD DUP7 SSTORE DUP12 SWAP8 SWAP1 SWAP6 ADD SWAP5 SWAP4 DUP5 ADD SWAP4 ADD PUSH2 0x4CF JUMP JUMPDEST SWAP1 SWAP2 POP DUP4 PUSH1 0x0 MSTORE DUP6 PUSH1 0x0 KECCAK256 PUSH1 0x1F DUP5 ADD PUSH1 0x5 SHR DUP2 ADD SWAP2 DUP8 DUP6 LT PUSH2 0x54B JUMPI JUMPDEST DUP5 SWAP4 SWAP3 SWAP2 PUSH1 0x1F DUP11 SWAP3 ADD PUSH1 0x5 SHR ADD SWAP2 JUMPDEST DUP3 DUP2 LT PUSH2 0x53C JUMPI POP POP PUSH2 0x480 JUMP JUMPDEST PUSH1 0x0 DUP2 SSTORE DUP6 SWAP5 POP DUP10 SWAP2 ADD PUSH2 0x52E JUMP JUMPDEST SWAP1 SWAP2 POP DUP2 SWAP1 PUSH2 0x51F JUMP JUMPDEST PUSH32 0x32418106FD89AF94305D9787ACB608A501B749F5F1783CFCA7B3F864595254CA DUP3 MLOAD DUP3 KECCAK256 PUSH8 0x3637B1B0BA34B7B7 PUSH1 0xC1 SHL DUP8 PUSH1 0x40 MLOAD PUSH2 0x593 DUP2 PUSH2 0x1FED JUMP JUMPDEST PUSH1 0x8 DUP2 MSTORE ADD MSTORE SUB PUSH2 0x696 JUMPI POP POP PUSH1 0x4 PUSH2 0x5AB DUP8 PUSH2 0x1F49 JUMP JUMPDEST POP ADD SWAP1 DUP1 MLOAD SWAP1 DUP9 DUP3 GT PUSH2 0x425 JUMPI DUP2 SWAP1 PUSH2 0x5C4 DUP5 SLOAD PUSH2 0x1F97 JUMP JUMPDEST PUSH1 0x1F DUP2 GT PUSH2 0x643 JUMPI JUMPDEST POP DUP6 SWAP1 PUSH1 0x1F DUP4 GT PUSH1 0x1 EQ PUSH2 0x5FA JUMPI PUSH1 0x0 SWAP3 PUSH2 0x4AE JUMPI POP POP PUSH1 0x0 NOT PUSH1 0x3 DUP4 SWAP1 SHL SHR NOT AND SWAP1 DUP6 SHL OR SWAP1 SSTORE PUSH2 0x203 JUMP JUMPDEST SWAP1 DUP8 SWAP4 POP PUSH1 0x1F NOT DUP4 AND SWAP2 DUP6 PUSH1 0x0 MSTORE DUP8 PUSH1 0x0 KECCAK256 SWAP3 PUSH1 0x0 JUMPDEST DUP10 DUP3 DUP3 LT PUSH2 0x62D JUMPI POP POP DUP5 GT PUSH2 0x3A3 JUMPI POP POP POP DUP2 SHL ADD SWAP1 SSTORE PUSH2 0x203 JUMP JUMPDEST DUP4 DUP6 ADD MLOAD DUP7 SSTORE DUP12 SWAP8 SWAP1 SWAP6 ADD SWAP5 SWAP4 DUP5 ADD SWAP4 ADD PUSH2 0x610 JUMP JUMPDEST SWAP1 SWAP2 POP DUP4 PUSH1 0x0 MSTORE DUP6 PUSH1 0x0 KECCAK256 PUSH1 0x1F DUP5 ADD PUSH1 0x5 SHR DUP2 ADD SWAP2 DUP8 DUP6 LT PUSH2 0x68C JUMPI JUMPDEST DUP5 SWAP4 SWAP3 SWAP2 PUSH1 0x1F DUP11 SWAP3 ADD PUSH1 0x5 SHR ADD SWAP2 JUMPDEST DUP3 DUP2 LT PUSH2 0x67D JUMPI POP POP PUSH2 0x5CD JUMP JUMPDEST PUSH1 0x0 DUP2 SSTORE DUP6 SWAP5 POP DUP10 SWAP2 ADD PUSH2 0x66F JUMP JUMPDEST SWAP1 SWAP2 POP DUP2 SWAP1 PUSH2 0x660 JUMP JUMPDEST PUSH32 0x8FBCB4375B910093BCF636B6B2F26B26EDA2A29EF5A8EE7DE44B5743C3BF9A28 DUP3 MLOAD DUP3 KECCAK256 PUSH8 0x33BAB0B93234B0B7 PUSH1 0xC1 SHL DUP8 PUSH1 0x40 MLOAD PUSH2 0x6D4 DUP2 PUSH2 0x1FED JUMP JUMPDEST PUSH1 0x8 DUP2 MSTORE ADD MSTORE SUB PUSH2 0x7D7 JUMPI POP POP PUSH1 0x5 PUSH2 0x6EC DUP8 PUSH2 0x1F49 JUMP JUMPDEST POP ADD SWAP1 DUP1 MLOAD SWAP1 DUP9 DUP3 GT PUSH2 0x425 JUMPI DUP2 SWAP1 PUSH2 0x705 DUP5 SLOAD PUSH2 0x1F97 JUMP JUMPDEST PUSH1 0x1F DUP2 GT PUSH2 0x784 JUMPI JUMPDEST POP DUP6 SWAP1 PUSH1 0x1F DUP4 GT PUSH1 0x1 EQ PUSH2 0x73B JUMPI PUSH1 0x0 SWAP3 PUSH2 0x4AE JUMPI POP POP PUSH1 0x0 NOT PUSH1 0x3 DUP4 SWAP1 SHL SHR NOT AND SWAP1 DUP6 SHL OR SWAP1 SSTORE PUSH2 0x203 JUMP JUMPDEST SWAP1 DUP8 SWAP4 POP PUSH1 0x1F NOT DUP4 AND SWAP2 DUP6 PUSH1 0x0 MSTORE DUP8 PUSH1 0x0 KECCAK256 SWAP3 PUSH1 0x0 JUMPDEST DUP10 DUP3 DUP3 LT PUSH2 0x76E JUMPI POP POP DUP5 GT PUSH2 0x3A3 JUMPI POP POP POP DUP2 SHL ADD SWAP1 SSTORE PUSH2 0x203 JUMP JUMPDEST DUP4 DUP6 ADD MLOAD DUP7 SSTORE DUP12 SWAP8 SWAP1 SWAP6 ADD SWAP5 SWAP4 DUP5 ADD SWAP4 ADD PUSH2 0x751 JUMP JUMPDEST SWAP1 SWAP2 POP DUP4 PUSH1 0x0 MSTORE DUP6 PUSH1 0x0 KECCAK256 PUSH1 0x1F DUP5 ADD PUSH1 0x5 SHR DUP2 ADD SWAP2 DUP8 DUP6 LT PUSH2 0x7CD JUMPI JUMPDEST DUP5 SWAP4 SWAP3 SWAP2 PUSH1 0x1F DUP11 SWAP3 ADD PUSH1 0x5 SHR ADD SWAP2 JUMPDEST DUP3 DUP2 LT PUSH2 0x7BE JUMPI POP POP PUSH2 0x70E JUMP JUMPDEST PUSH1 0x0 DUP2 SSTORE DUP6 SWAP5 POP DUP10 SWAP2 ADD PUSH2 0x7B0 JUMP JUMPDEST SWAP1 SWAP2 POP DUP2 SWAP1 PUSH2 0x7A1 JUMP JUMPDEST PUSH32 0x7A9D3A032B8FF274F09714B56BA8E5ED776EC9638CA303069BC3A3267BB22F65 SWAP2 MLOAD SWAP1 KECCAK256 PUSH8 0x6D65746164617461 PUSH1 0xC0 SHL DUP6 PUSH1 0x40 MLOAD PUSH2 0x815 DUP2 PUSH2 0x1FED JUMP JUMPDEST PUSH1 0x8 DUP2 MSTORE ADD MSTORE SUB PUSH2 0x916 JUMPI PUSH1 0xB PUSH2 0x82B DUP8 PUSH2 0x1F49 JUMP JUMPDEST POP ADD SWAP1 DUP1 MLOAD SWAP1 DUP9 DUP3 GT PUSH2 0x425 JUMPI DUP2 SWAP1 PUSH2 0x844 DUP5 SLOAD PUSH2 0x1F97 JUMP JUMPDEST PUSH1 0x1F DUP2 GT PUSH2 0x8C3 JUMPI JUMPDEST POP DUP6 SWAP1 PUSH1 0x1F DUP4 GT PUSH1 0x1 EQ PUSH2 0x87A JUMPI PUSH1 0x0 SWAP3 PUSH2 0x4AE JUMPI POP POP PUSH1 0x0 NOT PUSH1 0x3 DUP4 SWAP1 SHL SHR NOT AND SWAP1 DUP6 SHL OR SWAP1 SSTORE PUSH2 0x203 JUMP JUMPDEST SWAP1 DUP8 SWAP4 POP PUSH1 0x1F NOT DUP4 AND SWAP2 DUP6 PUSH1 0x0 MSTORE DUP8 PUSH1 0x0 KECCAK256 SWAP3 PUSH1 0x0 JUMPDEST DUP10 DUP3 DUP3 LT PUSH2 0x8AD JUMPI POP POP DUP5 GT PUSH2 0x3A3 JUMPI POP POP POP DUP2 SHL ADD SWAP1 SSTORE PUSH2 0x203 JUMP JUMPDEST DUP4 DUP6 ADD MLOAD DUP7 SSTORE DUP12 SWAP8 SWAP1 SWAP6 ADD SWAP5 SWAP4 DUP5 ADD SWAP4 ADD PUSH2 0x890 JUMP JUMPDEST SWAP1 SWAP2 POP DUP4 PUSH1 0x0 MSTORE DUP6 PUSH1 0x0 KECCAK256 PUSH1 0x1F DUP5 ADD PUSH1 0x5 SHR DUP2 ADD SWAP2 DUP8 DUP6 LT PUSH2 0x90C JUMPI JUMPDEST DUP5 SWAP4 SWAP3 SWAP2 PUSH1 0x1F DUP11 SWAP3 ADD PUSH1 0x5 SHR ADD SWAP2 JUMPDEST DUP3 DUP2 LT PUSH2 0x8FD JUMPI POP POP PUSH2 0x84D JUMP JUMPDEST PUSH1 0x0 DUP2 SSTORE DUP6 SWAP5 POP DUP10 SWAP2 ADD PUSH2 0x8EF JUMP JUMPDEST SWAP1 SWAP2 POP DUP2 SWAP1 PUSH2 0x8E0 JUMP JUMPDEST PUSH1 0x40 MLOAD PUSH3 0x461BCD PUSH1 0xE5 SHL DUP2 MSTORE PUSH1 0x4 DUP2 ADD DUP5 SWAP1 MSTORE PUSH1 0xD DUP2 DUP8 ADD MSTORE PUSH13 0x125B9D985B1A5908199A595B19 PUSH1 0x9A SHL PUSH1 0x44 DUP3 ADD MSTORE PUSH1 0x64 SWAP1 REVERT JUMPDEST PUSH1 0x40 MLOAD PUSH3 0x461BCD PUSH1 0xE5 SHL DUP2 MSTORE PUSH1 0x4 DUP2 ADD DUP7 SWAP1 MSTORE PUSH1 0x26 DUP2 DUP10 ADD MSTORE PUSH32 0x4F6E6C7920486F73706974616C2063616E20757064617465206865616C746820 PUSH1 0x44 DUP3 ADD MSTORE PUSH6 0x737461747573 PUSH1 0xD0 SHL PUSH1 0x64 DUP3 ADD MSTORE PUSH1 0x84 SWAP1 REVERT JUMPDEST DUP8 PUSH4 0x4E487B71 PUSH1 0xE0 SHL PUSH1 0x0 MSTORE PUSH1 0x21 PUSH1 0x4 MSTORE PUSH1 0x0 REVERT JUMPDEST CALLER PUSH1 0x0 MSTORE PUSH1 0x2 DUP6 MSTORE PUSH1 0xFF PUSH1 0x40 PUSH1 0x0 KECCAK256 SLOAD AND PUSH1 0x4 DUP2 LT ISZERO PUSH2 0x99D JUMPI ISZERO PUSH2 0x166 JUMPI PUSH1 0x40 MLOAD PUSH3 0x461BCD PUSH1 0xE5 SHL DUP2 MSTORE PUSH1 0x4 DUP2 ADD DUP7 SWAP1 MSTORE PUSH1 0x1B DUP2 DUP10 ADD MSTORE PUSH32 0x4F6E6C79204E474F2063616E20757064617465207265636F7264730000000000 PUSH1 0x44 DUP3 ADD MSTORE PUSH1 0x64 SWAP1 REVERT JUMPDEST PUSH1 0x0 DUP1 REVERT JUMPDEST CALLVALUE PUSH2 0xA15 JUMPI PUSH1 0x40 CALLDATASIZE PUSH1 0x3 NOT ADD SLT PUSH2 0xA15 JUMPI PUSH1 0x1 PUSH1 0x1 PUSH1 0x40 SHL SUB PUSH1 0x4 CALLDATALOAD PUSH1 0x24 CALLDATALOAD DUP3 DUP2 GT PUSH2 0xA15 JUMPI PUSH2 0xA4E SWAP1 CALLDATASIZE SWAP1 PUSH1 0x4 ADD PUSH2 0x20E5 JUMP JUMPDEST CALLER PUSH1 0x0 MSTORE PUSH1 0x20 PUSH1 0x2 DUP2 MSTORE PUSH1 0xFF PUSH1 0x40 PUSH1 0x0 KECCAK256 SLOAD AND PUSH1 0x4 DUP2 LT ISZERO PUSH2 0xBDA JUMPI PUSH2 0xA74 SWAP1 ISZERO PUSH2 0x213B JUMP JUMPDEST PUSH1 0x1 SWAP1 PUSH2 0xA83 DUP3 SLOAD DUP6 LT PUSH2 0x2195 JUMP JUMPDEST PUSH1 0xA PUSH2 0xA8E DUP6 PUSH2 0x1F49 JUMP JUMPDEST POP ADD DUP1 SLOAD PUSH1 0xFF PUSH1 0xA0 SHL NOT AND SWAP1 SSTORE PUSH1 0x6 PUSH2 0xAA6 DUP6 PUSH2 0x1F49 JUMP JUMPDEST POP ADD SWAP3 DUP1 MLOAD SWAP6 DUP7 GT PUSH2 0xBC4 JUMPI PUSH2 0xABC DUP5 SLOAD PUSH2 0x1F97 JUMP JUMPDEST PUSH1 0x1F DUP2 GT PUSH2 0xB7B JUMPI JUMPDEST POP DUP2 PUSH1 0x1F DUP8 GT PUSH1 0x1 EQ PUSH2 0xB0C JUMPI POP SWAP5 DUP1 PUSH2 0x278 SWAP6 SWAP5 SWAP4 DUP2 SWAP4 PUSH1 0xA SWAP9 PUSH1 0x0 SWAP5 PUSH2 0xB01 JUMPI POP POP SHL SWAP2 PUSH1 0x0 NOT SWAP1 PUSH1 0x3 SHL SHR NOT AND OR SWAP1 SSTORE PUSH2 0x26C DUP2 PUSH2 0x1F49 JUMP JUMPDEST ADD MLOAD SWAP3 POP DUP9 DUP1 PUSH2 0x251 JUMP JUMPDEST SWAP1 SWAP6 SWAP2 PUSH1 0x1F NOT DUP4 AND SWAP7 DUP6 PUSH1 0x0 MSTORE DUP3 PUSH1 0x0 KECCAK256 SWAP3 PUSH1 0x0 SWAP1 JUMPDEST DUP10 DUP3 LT PUSH2 0xB64 JUMPI POP POP SWAP1 DUP4 SWAP3 SWAP2 PUSH2 0x278 SWAP8 SWAP7 SWAP6 SWAP5 PUSH1 0xA SWAP10 LT PUSH2 0xB4B JUMPI POP POP POP DUP2 SHL ADD SWAP1 SSTORE PUSH2 0x263 JUMP JUMPDEST ADD MLOAD PUSH1 0x0 NOT PUSH1 0xF8 DUP5 PUSH1 0x3 SHL AND SHR NOT AND SWAP1 SSTORE DUP7 DUP1 DUP1 PUSH2 0x2CA JUMP JUMPDEST DUP1 DUP8 DUP6 SWAP7 DUP3 SWAP5 SWAP7 DUP7 ADD MLOAD DUP2 SSTORE ADD SWAP6 ADD SWAP4 ADD SWAP1 PUSH2 0xB22 JUMP JUMPDEST DUP5 PUSH1 0x0 MSTORE DUP3 PUSH1 0x0 KECCAK256 PUSH1 0x1F DUP9 ADD PUSH1 0x5 SHR DUP2 ADD SWAP2 DUP5 DUP10 LT PUSH2 0xBBA JUMPI JUMPDEST PUSH1 0x1F ADD PUSH1 0x5 SHR ADD SWAP1 DUP5 SWAP1 JUMPDEST DUP3 DUP2 LT PUSH2 0xBAE JUMPI POP POP PUSH2 0xAC5 JUMP JUMPDEST PUSH1 0x0 DUP2 SSTORE ADD DUP5 SWAP1 PUSH2 0xBA0 JUMP JUMPDEST SWAP1 SWAP2 POP DUP2 SWAP1 PUSH2 0xB95 JUMP JUMPDEST PUSH4 0x4E487B71 PUSH1 0xE0 SHL PUSH1 0x0 MSTORE PUSH1 0x41 PUSH1 0x4 MSTORE PUSH1 0x24 PUSH1 0x0 REVERT JUMPDEST PUSH4 0x4E487B71 PUSH1 0xE0 SHL PUSH1 0x0 MSTORE PUSH1 0x21 PUSH1 0x4 MSTORE PUSH1 0x24 PUSH1 0x0 REVERT JUMPDEST CALLVALUE PUSH2 0xA15 JUMPI PUSH1 0x0 CALLDATASIZE PUSH1 0x3 NOT ADD SLT PUSH2 0xA15 JUMPI CALLER PUSH1 0x0 MSTORE PUSH1 0x20 PUSH1 0x2 DUP2 MSTORE PUSH1 0xFF PUSH1 0x40 PUSH1 0x0 KECCAK256 SLOAD AND PUSH1 0x4 DUP2 LT ISZERO DUP1 PUSH2 0xBDA JUMPI DUP2 ISZERO SWAP1 DUP2 ISZERO PUSH2 0xCE3 JUMPI JUMPDEST DUP2 ISZERO PUSH2 0xCD2 JUMPI JUMPDEST DUP2 ISZERO PUSH2 0xCBF JUMPI JUMPDEST POP PUSH2 0xC41 SWAP2 POP PUSH2 0x22A4 JUMP JUMPDEST PUSH1 0x0 SLOAD PUSH2 0xC4D DUP2 PUSH2 0x23BC JUMP JUMPDEST SWAP1 PUSH2 0xC5B PUSH1 0x40 MLOAD SWAP3 DUP4 PUSH2 0x2008 JUMP JUMPDEST DUP1 DUP3 MSTORE PUSH1 0x0 DUP1 DUP1 MSTORE PUSH32 0x290DECD9548B62A8D60345A988386FC84BA6BC95484008F6362F93160EF3E563 SWAP4 DUP1 DUP5 ADD JUMPDEST DUP4 DUP4 LT PUSH2 0xCA2 JUMPI PUSH1 0x40 MLOAD DUP1 PUSH2 0xC9E DUP8 DUP3 PUSH2 0x1EE7 JUMP JUMPDEST SUB SWAP1 RETURN JUMPDEST PUSH1 0xC DUP3 PUSH1 0x1 SWAP3 PUSH2 0xCB1 DUP10 PUSH2 0x22F0 JUMP JUMPDEST DUP2 MSTORE ADD SWAP7 ADD SWAP3 ADD SWAP2 SWAP5 PUSH2 0xC89 JUMP JUMPDEST SWAP1 POP PUSH2 0xBDA JUMPI PUSH1 0x3 PUSH2 0xC41 SWAP2 EQ DUP4 PUSH2 0xC36 JUMP JUMPDEST DUP1 SWAP2 POP PUSH2 0xBDA JUMPI PUSH1 0x2 DUP3 EQ SWAP1 PUSH2 0xC2F JUMP JUMPDEST POP POP PUSH1 0x1 DUP2 EQ PUSH1 0x0 PUSH2 0xC28 JUMP JUMPDEST CALLVALUE PUSH2 0xA15 JUMPI PUSH1 0x20 CALLDATASIZE PUSH1 0x3 NOT ADD SLT PUSH2 0xA15 JUMPI PUSH1 0x1 PUSH1 0x1 PUSH1 0xA0 SHL SUB PUSH2 0xD11 PUSH2 0x20CF JUMP JUMPDEST AND PUSH1 0x0 MSTORE PUSH1 0x2 PUSH1 0x20 MSTORE PUSH1 0xFF PUSH1 0x40 PUSH1 0x0 KECCAK256 SLOAD AND PUSH1 0x40 MLOAD PUSH1 0x4 DUP3 LT ISZERO PUSH2 0xBDA JUMPI PUSH1 0x20 SWAP2 DUP2 MSTORE RETURN JUMPDEST CALLVALUE PUSH2 0xA15 JUMPI PUSH1 0x0 CALLDATASIZE PUSH1 0x3 NOT ADD SLT PUSH2 0xA15 JUMPI PUSH1 0x20 PUSH1 0x1 SLOAD PUSH1 0x40 MLOAD SWAP1 DUP2 MSTORE RETURN JUMPDEST CALLVALUE PUSH2 0xA15 JUMPI PUSH1 0xC0 CALLDATASIZE PUSH1 0x3 NOT ADD SLT PUSH2 0xA15 JUMPI PUSH1 0x4 CALLDATALOAD PUSH1 0x1 PUSH1 0x1 PUSH1 0x40 SHL SUB DUP2 GT PUSH2 0xA15 JUMPI PUSH2 0xD84 SWAP1 CALLDATASIZE SWAP1 PUSH1 0x4 ADD PUSH2 0x20E5 JUMP JUMPDEST PUSH1 0x24 CALLDATALOAD PUSH1 0x44 CALLDATALOAD PUSH1 0x1 PUSH1 0x1 PUSH1 0x40 SHL SUB DUP2 GT PUSH2 0xA15 JUMPI PUSH2 0xDA6 SWAP1 CALLDATASIZE SWAP1 PUSH1 0x4 ADD PUSH2 0x20E5 JUMP JUMPDEST PUSH1 0x64 CALLDATALOAD PUSH1 0x1 PUSH1 0x1 PUSH1 0x40 SHL SUB DUP2 GT PUSH2 0xA15 JUMPI PUSH2 0xDC5 SWAP1 CALLDATASIZE SWAP1 PUSH1 0x4 ADD PUSH2 0x20E5 JUMP JUMPDEST PUSH1 0x84 CALLDATALOAD PUSH1 0x1 PUSH1 0x1 PUSH1 0x40 SHL SUB DUP2 GT PUSH2 0xA15 JUMPI PUSH2 0xDE4 SWAP1 CALLDATASIZE SWAP1 PUSH1 0x4 ADD PUSH2 0x20E5 JUMP JUMPDEST SWAP1 PUSH1 0xA4 CALLDATALOAD PUSH1 0x1 PUSH1 0x1 PUSH1 0x40 SHL SUB DUP2 GT PUSH2 0xA15 JUMPI PUSH2 0xE04 SWAP1 CALLDATASIZE SWAP1 PUSH1 0x4 ADD PUSH2 0x20E5 JUMP JUMPDEST SWAP3 CALLER PUSH1 0x0 MSTORE PUSH1 0x2 PUSH1 0x20 MSTORE PUSH1 0xFF PUSH1 0x40 PUSH1 0x0 KECCAK256 SLOAD AND PUSH1 0x4 DUP2 LT ISZERO PUSH2 0xBDA JUMPI PUSH2 0xE2A SWAP1 ISZERO PUSH2 0x213B JUMP JUMPDEST PUSH1 0x12 DUP6 GT PUSH2 0x16A2 JUMPI PUSH1 0x1 SLOAD SWAP5 PUSH1 0x40 MLOAD SWAP6 PUSH2 0xE43 DUP8 PUSH2 0x1FD1 JUMP JUMPDEST DUP7 MSTORE DUP7 PUSH1 0x20 DUP8 ADD MSTORE PUSH1 0x40 DUP7 ADD MSTORE PUSH1 0x60 DUP6 ADD MSTORE PUSH1 0x80 DUP5 ADD MSTORE PUSH1 0xA0 DUP4 ADD MSTORE PUSH1 0x40 MLOAD PUSH2 0xE6B DUP2 PUSH2 0x1FED JUMP JUMPDEST PUSH1 0x6 DUP2 MSTORE PUSH6 0x416374697665 PUSH1 0xD0 SHL PUSH1 0x20 DUP3 ADD MSTORE PUSH1 0xC0 DUP4 ADD MSTORE TIMESTAMP PUSH1 0xE0 DUP4 ADD MSTORE TIMESTAMP PUSH2 0x100 DUP4 ADD MSTORE CALLER PUSH2 0x120 DUP4 ADD MSTORE CALLER PUSH2 0x140 DUP4 ADD MSTORE PUSH1 0x1 PUSH2 0x160 DUP4 ADD MSTORE PUSH2 0x180 DUP3 ADD MSTORE PUSH1 0x0 SLOAD PUSH9 0x10000000000000000 DUP2 LT ISZERO PUSH2 0xBC4 JUMPI DUP1 PUSH1 0x1 PUSH2 0xED0 SWAP3 ADD PUSH1 0x0 SSTORE PUSH2 0x1F49 JUMP JUMPDEST SWAP3 SWAP1 SWAP3 PUSH2 0x168C JUMPI DUP2 MLOAD DUP4 SSTORE PUSH1 0x20 DUP3 ADD MLOAD SWAP3 DUP4 MLOAD PUSH1 0x1 PUSH1 0x1 PUSH1 0x40 SHL SUB DUP2 GT PUSH2 0xBC4 JUMPI PUSH2 0xEFE PUSH1 0x1 DUP4 ADD SLOAD PUSH2 0x1F97 JUMP JUMPDEST PUSH1 0x1F DUP2 GT PUSH2 0x1645 JUMPI JUMPDEST POP PUSH1 0x20 PUSH1 0x1F DUP3 GT PUSH1 0x1 EQ PUSH2 0x15D6 JUMPI DUP2 SWAP3 SWAP4 SWAP5 SWAP6 PUSH1 0x0 SWAP3 PUSH2 0x15CB JUMPI JUMPDEST POP POP DUP2 PUSH1 0x1 SHL SWAP2 PUSH1 0x0 NOT SWAP1 PUSH1 0x3 SHL SHR NOT AND OR PUSH1 0x1 DUP3 ADD SSTORE JUMPDEST PUSH1 0x40 DUP4 ADD MLOAD PUSH1 0x2 DUP3 ADD SSTORE PUSH1 0x60 DUP4 ADD MLOAD SWAP3 DUP4 MLOAD PUSH1 0x1 PUSH1 0x1 PUSH1 0x40 SHL SUB DUP2 GT PUSH2 0xBC4 JUMPI PUSH2 0xF67 PUSH1 0x3 DUP5 ADD SLOAD PUSH2 0x1F97 JUMP JUMPDEST PUSH1 0x1F DUP2 GT PUSH2 0x1584 JUMPI JUMPDEST POP PUSH1 0x20 PUSH1 0x1F DUP3 GT PUSH1 0x1 EQ PUSH2 0x1515 JUMPI DUP2 SWAP3 SWAP4 SWAP5 SWAP6 PUSH1 0x0 SWAP3 PUSH2 0x150A JUMPI JUMPDEST POP POP DUP2 PUSH1 0x1 SHL SWAP2 PUSH1 0x0 NOT SWAP1 PUSH1 0x3 SHL SHR NOT AND OR PUSH1 0x3 DUP4 ADD SSTORE JUMPDEST PUSH1 0x80 DUP2 ADD MLOAD SWAP3 DUP4 MLOAD PUSH1 0x1 PUSH1 0x1 PUSH1 0x40 SHL SUB DUP2 GT PUSH2 0xBC4 JUMPI PUSH2 0xFC6 PUSH1 0x4 DUP6 ADD SLOAD PUSH2 0x1F97 JUMP JUMPDEST PUSH1 0x1F DUP2 GT PUSH2 0x14C3 JUMPI JUMPDEST POP PUSH1 0x20 PUSH1 0x1F DUP3 GT PUSH1 0x1 EQ PUSH2 0x1454 JUMPI DUP2 SWAP3 SWAP4 SWAP5 SWAP6 PUSH1 0x0 SWAP3 PUSH2 0x1449 JUMPI JUMPDEST POP POP DUP2 PUSH1 0x1 SHL SWAP2 PUSH1 0x0 NOT SWAP1 PUSH1 0x3 SHL SHR NOT AND OR PUSH1 0x4 DUP5 ADD SSTORE JUMPDEST PUSH1 0xA0 DUP3 ADD MLOAD SWAP3 DUP4 MLOAD PUSH1 0x1 PUSH1 0x1 PUSH1 0x40 SHL SUB DUP2 GT PUSH2 0xBC4 JUMPI PUSH2 0x1025 PUSH1 0x5 DUP4 ADD SLOAD PUSH2 0x1F97 JUMP JUMPDEST PUSH1 0x1F DUP2 GT PUSH2 0x1402 JUMPI JUMPDEST POP PUSH1 0x20 PUSH1 0x1F DUP3 GT PUSH1 0x1 EQ PUSH2 0x1393 JUMPI DUP2 SWAP3 SWAP4 SWAP5 SWAP6 PUSH1 0x0 SWAP3 PUSH2 0x1388 JUMPI JUMPDEST POP POP DUP2 PUSH1 0x1 SHL SWAP2 PUSH1 0x0 NOT SWAP1 PUSH1 0x3 SHL SHR NOT AND OR PUSH1 0x5 DUP3 ADD SSTORE JUMPDEST PUSH1 0xC0 DUP4 ADD MLOAD DUP1 MLOAD SWAP1 PUSH1 0x1 PUSH1 0x1 PUSH1 0x40 SHL SUB DUP3 GT PUSH2 0xBC4 JUMPI PUSH2 0x1084 PUSH1 0x6 DUP5 ADD SLOAD PUSH2 0x1F97 JUMP JUMPDEST PUSH1 0x1F DUP2 GT PUSH2 0x1341 JUMPI JUMPDEST POP PUSH1 0x20 SWAP1 PUSH1 0x1F DUP4 GT PUSH1 0x1 EQ PUSH2 0x12CB JUMPI SWAP2 DUP1 PUSH2 0x180 SWAP5 SWAP3 PUSH1 0xB SWAP5 PUSH1 0x0 SWAP3 PUSH2 0x12C0 JUMPI JUMPDEST POP POP DUP2 PUSH1 0x1 SHL SWAP2 PUSH1 0x0 NOT SWAP1 PUSH1 0x3 SHL SHR NOT AND OR PUSH1 0x6 DUP3 ADD SSTORE JUMPDEST PUSH1 0xE0 DUP6 ADD MLOAD PUSH1 0x7 DUP3 ADD SSTORE PUSH2 0x100 DUP6 ADD MLOAD PUSH1 0x8 DUP3 ADD SSTORE PUSH1 0x9 DUP2 ADD PUSH1 0x1 DUP1 PUSH1 0xA0 SHL SUB SWAP1 DUP2 PUSH2 0x120 DUP9 ADD MLOAD AND PUSH12 0xFFFFFFFFFFFFFFFFFFFFFFFF PUSH1 0xA0 SHL DUP3 SLOAD AND OR SWAP1 SSTORE PUSH1 0xA DUP3 ADD SWAP1 PUSH2 0x140 DUP8 ADD MLOAD AND DUP2 SLOAD SWAP1 PUSH1 0xFF PUSH1 0xA0 SHL PUSH2 0x160 DUP10 ADD MLOAD ISZERO ISZERO PUSH1 0xA0 SHL AND SWAP2 PUSH11 0xFFFFFFFFFFFFFFFFFFFFFF PUSH1 0xA8 SHL AND OR OR SWAP1 SSTORE ADD SWAP3 ADD MLOAD SWAP2 DUP3 MLOAD PUSH1 0x1 PUSH1 0x1 PUSH1 0x40 SHL SUB DUP2 GT PUSH2 0xBC4 JUMPI PUSH2 0x1159 DUP3 SLOAD PUSH2 0x1F97 JUMP JUMPDEST PUSH1 0x1F DUP2 GT PUSH2 0x1278 JUMPI JUMPDEST POP PUSH1 0x20 PUSH1 0x1F DUP3 GT PUSH1 0x1 EQ PUSH2 0x1212 JUMPI DUP2 SWAP3 SWAP4 SWAP5 PUSH1 0x0 SWAP3 PUSH2 0x1207 JUMPI JUMPDEST POP POP DUP2 PUSH1 0x1 SHL SWAP2 PUSH1 0x0 NOT SWAP1 PUSH1 0x3 SHL SHR NOT AND OR SWAP1 SSTORE JUMPDEST PUSH2 0x119C PUSH1 0x1 SLOAD PUSH2 0x2186 JUMP JUMPDEST DUP1 PUSH1 0x1 SSTORE PUSH1 0x0 NOT DUP2 ADD SWAP1 DUP2 GT PUSH2 0x11F1 JUMPI PUSH1 0x20 SWAP2 DUP2 PUSH32 0x99A9454438287BD513ED7DA46FC0FF0CABC6B573EEAFB583A59E01BC2E52EF90 PUSH1 0x40 MLOAD DUP6 DUP2 MSTORE DUP1 PUSH2 0x11E6 CALLER SWAP6 DUP9 DUP4 ADD SWAP1 PUSH2 0x1DCD JUMP JUMPDEST SUB SWAP1 LOG3 PUSH1 0x40 MLOAD SWAP1 DUP2 MSTORE RETURN JUMPDEST PUSH4 0x4E487B71 PUSH1 0xE0 SHL PUSH1 0x0 MSTORE PUSH1 0x11 PUSH1 0x4 MSTORE PUSH1 0x24 PUSH1 0x0 REVERT JUMPDEST ADD MLOAD SWAP1 POP DUP5 DUP1 PUSH2 0x117C JUMP JUMPDEST PUSH1 0x1F NOT DUP3 AND SWAP1 DUP4 PUSH1 0x0 MSTORE PUSH1 0x20 PUSH1 0x0 KECCAK256 SWAP2 PUSH1 0x0 JUMPDEST DUP2 DUP2 LT PUSH2 0x1260 JUMPI POP SWAP6 DUP4 PUSH1 0x1 SWAP6 SWAP7 SWAP8 LT PUSH2 0x1247 JUMPI JUMPDEST POP POP POP DUP2 SHL ADD SWAP1 SSTORE PUSH2 0x1191 JUMP JUMPDEST ADD MLOAD PUSH1 0x0 NOT PUSH1 0xF8 DUP5 PUSH1 0x3 SHL AND SHR NOT AND SWAP1 SSTORE DUP5 DUP1 DUP1 PUSH2 0x123A JUMP JUMPDEST SWAP2 SWAP3 PUSH1 0x20 PUSH1 0x1 DUP2 SWAP3 DUP7 DUP12 ADD MLOAD DUP2 SSTORE ADD SWAP5 ADD SWAP3 ADD PUSH2 0x1225 JUMP JUMPDEST DUP3 PUSH1 0x0 MSTORE PUSH1 0x20 PUSH1 0x0 KECCAK256 PUSH1 0x1F DUP4 ADD PUSH1 0x5 SHR DUP2 ADD SWAP2 PUSH1 0x20 DUP5 LT PUSH2 0x12B6 JUMPI JUMPDEST PUSH1 0x1F ADD PUSH1 0x5 SHR ADD SWAP1 JUMPDEST DUP2 DUP2 LT PUSH2 0x12AA JUMPI POP PUSH2 0x1162 JUMP JUMPDEST PUSH1 0x0 DUP2 SSTORE PUSH1 0x1 ADD PUSH2 0x129D JUMP JUMPDEST SWAP1 SWAP2 POP DUP2 SWAP1 PUSH2 0x1294 JUMP JUMPDEST ADD MLOAD SWAP1 POP DUP8 DUP1 PUSH2 0x10AE JUMP JUMPDEST SWAP1 PUSH1 0x6 DUP5 ADD PUSH1 0x0 MSTORE PUSH1 0x20 PUSH1 0x0 KECCAK256 SWAP2 PUSH1 0x0 JUMPDEST PUSH1 0x1F NOT DUP6 AND DUP2 LT PUSH2 0x1329 JUMPI POP SWAP3 PUSH2 0x180 SWAP5 SWAP3 PUSH1 0x1 SWAP3 PUSH1 0xB SWAP6 DUP4 PUSH1 0x1F NOT DUP2 AND LT PUSH2 0x1310 JUMPI JUMPDEST POP POP POP DUP2 SHL ADD PUSH1 0x6 DUP3 ADD SSTORE PUSH2 0x10C6 JUMP JUMPDEST ADD MLOAD PUSH1 0x0 NOT PUSH1 0xF8 DUP5 PUSH1 0x3 SHL AND SHR NOT AND SWAP1 SSTORE DUP8 DUP1 DUP1 PUSH2 0x1300 JUMP JUMPDEST SWAP2 SWAP3 PUSH1 0x20 PUSH1 0x1 DUP2 SWAP3 DUP7 DUP6 ADD MLOAD DUP2 SSTORE ADD SWAP5 ADD SWAP3 ADD PUSH2 0x12DC JUMP JUMPDEST PUSH1 0x6 DUP5 ADD PUSH1 0x0 MSTORE PUSH1 0x20 PUSH1 0x0 KECCAK256 PUSH1 0x1F DUP5 ADD PUSH1 0x5 SHR DUP2 ADD PUSH1 0x20 DUP6 LT PUSH2 0x1381 JUMPI JUMPDEST PUSH1 0x1F DUP4 ADD PUSH1 0x5 SHR DUP3 ADD DUP2 LT PUSH2 0x1375 JUMPI POP POP PUSH2 0x108D JUMP JUMPDEST PUSH1 0x0 DUP2 SSTORE PUSH1 0x1 ADD PUSH2 0x135F JUMP JUMPDEST POP DUP1 PUSH2 0x135F JUMP JUMPDEST ADD MLOAD SWAP1 POP DUP6 DUP1 PUSH2 0x1049 JUMP JUMPDEST PUSH1 0x5 DUP4 ADD PUSH1 0x0 MSTORE PUSH1 0x20 PUSH1 0x0 KECCAK256 SWAP1 PUSH1 0x0 JUMPDEST PUSH1 0x1F NOT DUP5 AND DUP2 LT PUSH2 0x13EA JUMPI POP PUSH1 0x1 SWAP4 SWAP5 SWAP6 SWAP7 DUP4 PUSH1 0x1F NOT DUP2 AND LT PUSH2 0x13D1 JUMPI JUMPDEST POP POP POP DUP2 SHL ADD PUSH1 0x5 DUP3 ADD SSTORE PUSH2 0x1061 JUMP JUMPDEST ADD MLOAD PUSH1 0x0 NOT PUSH1 0xF8 DUP5 PUSH1 0x3 SHL AND SHR NOT AND SWAP1 SSTORE DUP6 DUP1 DUP1 PUSH2 0x13C1 JUMP JUMPDEST SWAP1 SWAP2 PUSH1 0x20 PUSH1 0x1 DUP2 SWAP3 DUP6 DUP12 ADD MLOAD DUP2 SSTORE ADD SWAP4 ADD SWAP2 ADD PUSH2 0x13A3 JUMP JUMPDEST PUSH1 0x5 DUP4 ADD PUSH1 0x0 MSTORE PUSH1 0x20 PUSH1 0x0 KECCAK256 PUSH1 0x1F DUP4 ADD PUSH1 0x5 SHR DUP2 ADD PUSH1 0x20 DUP5 LT PUSH2 0x1442 JUMPI JUMPDEST PUSH1 0x1F DUP4 ADD PUSH1 0x5 SHR DUP3 ADD DUP2 LT PUSH2 0x1436 JUMPI POP POP PUSH2 0x102E JUMP JUMPDEST PUSH1 0x0 DUP2 SSTORE PUSH1 0x1 ADD PUSH2 0x1420 JUMP JUMPDEST POP DUP1 PUSH2 0x1420 JUMP JUMPDEST ADD MLOAD SWAP1 POP DUP6 DUP1 PUSH2 0xFEA JUMP JUMPDEST PUSH1 0x4 DUP6 ADD PUSH1 0x0 MSTORE PUSH1 0x20 PUSH1 0x0 KECCAK256 SWAP1 PUSH1 0x0 JUMPDEST PUSH1 0x1F NOT DUP5 AND DUP2 LT PUSH2 0x14AB JUMPI POP PUSH1 0x1 SWAP4 SWAP5 SWAP6 SWAP7 DUP4 PUSH1 0x1F NOT DUP2 AND LT PUSH2 0x1492 JUMPI JUMPDEST POP POP POP DUP2 SHL ADD PUSH1 0x4 DUP5 ADD SSTORE PUSH2 0x1002 JUMP JUMPDEST ADD MLOAD PUSH1 0x0 NOT PUSH1 0xF8 DUP5 PUSH1 0x3 SHL AND SHR NOT AND SWAP1 SSTORE DUP6 DUP1 DUP1 PUSH2 0x1482 JUMP JUMPDEST SWAP1 SWAP2 PUSH1 0x20 PUSH1 0x1 DUP2 SWAP3 DUP6 DUP12 ADD MLOAD DUP2 SSTORE ADD SWAP4 ADD SWAP2 ADD PUSH2 0x1464 JUMP JUMPDEST PUSH1 0x4 DUP6 ADD PUSH1 0x0 MSTORE PUSH1 0x20 PUSH1 0x0 KECCAK256 PUSH1 0x1F DUP4 ADD PUSH1 0x5 SHR DUP2 ADD PUSH1 0x20 DUP5 LT PUSH2 0x1503 JUMPI JUMPDEST PUSH1 0x1F DUP4 ADD PUSH1 0x5 SHR DUP3 ADD DUP2 LT PUSH2 0x14F7 JUMPI POP POP PUSH2 0xFCF JUMP JUMPDEST PUSH1 0x0 DUP2 SSTORE PUSH1 0x1 ADD PUSH2 0x14E1 JUMP JUMPDEST POP DUP1 PUSH2 0x14E1 JUMP JUMPDEST ADD MLOAD SWAP1 POP DUP6 DUP1 PUSH2 0xF8B JUMP JUMPDEST PUSH1 0x3 DUP5 ADD PUSH1 0x0 MSTORE PUSH1 0x20 PUSH1 0x0 KECCAK256 SWAP1 PUSH1 0x0 JUMPDEST PUSH1 0x1F NOT DUP5 AND DUP2 LT PUSH2 0x156C JUMPI POP PUSH1 0x1 SWAP4 SWAP5 SWAP6 SWAP7 DUP4 PUSH1 0x1F NOT DUP2 AND LT PUSH2 0x1553 JUMPI JUMPDEST POP POP POP DUP2 SHL ADD PUSH1 0x3 DUP4 ADD SSTORE PUSH2 0xFA3 JUMP JUMPDEST ADD MLOAD PUSH1 0x0 NOT PUSH1 0xF8 DUP5 PUSH1 0x3 SHL AND SHR NOT AND SWAP1 SSTORE DUP6 DUP1 DUP1 PUSH2 0x1543 JUMP JUMPDEST SWAP1 SWAP2 PUSH1 0x20 PUSH1 0x1 DUP2 SWAP3 DUP6 DUP12 ADD MLOAD DUP2 SSTORE ADD SWAP4 ADD SWAP2 ADD PUSH2 0x1525 JUMP JUMPDEST PUSH1 0x3 DUP5 ADD PUSH1 0x0 MSTORE PUSH1 0x20 PUSH1 0x0 KECCAK256 PUSH1 0x1F DUP4 ADD PUSH1 0x5 SHR DUP2 ADD PUSH1 0x20 DUP5 LT PUSH2 0x15C4 JUMPI JUMPDEST PUSH1 0x1F DUP4 ADD PUSH1 0x5 SHR DUP3 ADD DUP2 LT PUSH2 0x15B8 JUMPI POP POP PUSH2 0xF70 JUMP JUMPDEST PUSH1 0x0 DUP2 SSTORE PUSH1 0x1 ADD PUSH2 0x15A2 JUMP JUMPDEST POP DUP1 PUSH2 0x15A2 JUMP JUMPDEST ADD MLOAD SWAP1 POP DUP6 DUP1 PUSH2 0xF22 JUMP JUMPDEST PUSH1 0x1 DUP4 ADD PUSH1 0x0 MSTORE PUSH1 0x20 PUSH1 0x0 KECCAK256 SWAP1 PUSH1 0x0 JUMPDEST PUSH1 0x1F NOT DUP5 AND DUP2 LT PUSH2 0x162D JUMPI POP PUSH1 0x1 SWAP4 SWAP5 SWAP6 SWAP7 DUP4 PUSH1 0x1F NOT DUP2 AND LT PUSH2 0x1614 JUMPI JUMPDEST POP POP POP DUP2 SHL ADD PUSH1 0x1 DUP3 ADD SSTORE PUSH2 0xF3A JUMP JUMPDEST ADD MLOAD PUSH1 0x0 NOT PUSH1 0xF8 DUP5 PUSH1 0x3 SHL AND SHR NOT AND SWAP1 SSTORE DUP6 DUP1 DUP1 PUSH2 0x1604 JUMP JUMPDEST SWAP1 SWAP2 PUSH1 0x20 PUSH1 0x1 DUP2 SWAP3 DUP6 DUP12 ADD MLOAD DUP2 SSTORE ADD SWAP4 ADD SWAP2 ADD PUSH2 0x15E6 JUMP JUMPDEST PUSH1 0x1 DUP4 ADD PUSH1 0x0 MSTORE PUSH1 0x20 PUSH1 0x0 KECCAK256 PUSH1 0x1F DUP4 ADD PUSH1 0x5 SHR DUP2 ADD PUSH1 0x20 DUP5 LT PUSH2 0x1685 JUMPI JUMPDEST PUSH1 0x1F DUP4 ADD PUSH1 0x5 SHR DUP3 ADD DUP2 LT PUSH2 0x1679 JUMPI POP POP PUSH2 0xF07 JUMP JUMPDEST PUSH1 0x0 DUP2 SSTORE PUSH1 0x1 ADD PUSH2 0x1663 JUMP JUMPDEST POP DUP1 PUSH2 0x1663 JUMP JUMPDEST PUSH4 0x4E487B71 PUSH1 0xE0 SHL PUSH1 0x0 MSTORE PUSH1 0x0 PUSH1 0x4 MSTORE PUSH1 0x24 PUSH1 0x0 REVERT JUMPDEST PUSH1 0x40 MLOAD PUSH3 0x461BCD PUSH1 0xE5 SHL DUP2 MSTORE PUSH1 0x20 PUSH1 0x4 DUP3 ADD MSTORE PUSH1 0x19 PUSH1 0x24 DUP3 ADD MSTORE PUSH32 0x416765206D757374206265203138206F7220796F756E67657200000000000000 PUSH1 0x44 DUP3 ADD MSTORE PUSH1 0x64 SWAP1 REVERT JUMPDEST CALLVALUE PUSH2 0xA15 JUMPI PUSH1 0x60 CALLDATASIZE PUSH1 0x3 NOT ADD SLT PUSH2 0xA15 JUMPI PUSH1 0x1 PUSH1 0x1 PUSH1 0x40 SHL SUB PUSH1 0x4 CALLDATALOAD PUSH1 0x24 CALLDATALOAD DUP3 DUP2 GT PUSH2 0xA15 JUMPI PUSH2 0x171B SWAP1 CALLDATASIZE SWAP1 PUSH1 0x4 ADD PUSH2 0x20E5 JUMP JUMPDEST PUSH1 0x44 CALLDATALOAD DUP4 DUP2 GT PUSH2 0xA15 JUMPI PUSH2 0x1733 SWAP1 CALLDATASIZE SWAP1 PUSH1 0x4 ADD PUSH2 0x20E5 JUMP JUMPDEST CALLER PUSH1 0x0 MSTORE PUSH1 0x20 SWAP2 PUSH1 0x2 DUP4 MSTORE PUSH1 0xFF PUSH1 0x40 PUSH1 0x0 KECCAK256 SLOAD AND PUSH1 0x4 DUP2 LT ISZERO PUSH2 0xBDA JUMPI PUSH1 0x2 SUB PUSH2 0x198B JUMPI PUSH1 0x1 SWAP2 PUSH2 0x1766 DUP4 SLOAD DUP7 LT PUSH2 0x2195 JUMP JUMPDEST PUSH2 0x1776 PUSH1 0xFF PUSH1 0xA PUSH2 0x11A DUP9 PUSH2 0x1F49 JUMP JUMPDEST PUSH1 0x5 PUSH2 0x1781 DUP7 PUSH2 0x1F49 JUMP JUMPDEST POP ADD DUP3 MLOAD DUP8 DUP2 GT PUSH2 0xBC4 JUMPI DUP1 PUSH2 0x1797 DUP4 SLOAD PUSH2 0x1F97 JUMP JUMPDEST SWAP5 PUSH1 0x1F SWAP6 DUP7 DUP2 GT PUSH2 0x193A JUMPI JUMPDEST POP DUP8 SWAP1 DUP7 DUP4 GT PUSH1 0x1 EQ PUSH2 0x18D7 JUMPI PUSH1 0x0 SWAP3 PUSH2 0x18CC JUMPI JUMPDEST POP POP PUSH1 0x0 NOT PUSH1 0x3 DUP4 SWAP1 SHL SHR NOT AND SWAP1 DUP6 SHL OR SWAP1 SSTORE JUMPDEST PUSH1 0x6 PUSH2 0x17D7 DUP7 PUSH2 0x1F49 JUMP JUMPDEST POP ADD SWAP4 DUP2 MLOAD SWAP7 DUP8 GT PUSH2 0xBC4 JUMPI PUSH2 0x17ED DUP6 SLOAD PUSH2 0x1F97 JUMP JUMPDEST DUP4 DUP2 GT PUSH2 0x1886 JUMPI JUMPDEST POP DUP1 SWAP3 DUP8 GT PUSH1 0x1 EQ PUSH2 0x1830 JUMPI POP SWAP5 DUP1 PUSH2 0x278 SWAP6 SWAP5 SWAP4 DUP2 SWAP4 PUSH1 0xA SWAP9 PUSH1 0x0 SWAP5 PUSH2 0xB01 JUMPI POP POP SHL SWAP2 PUSH1 0x0 NOT SWAP1 PUSH1 0x3 SHL SHR NOT AND OR SWAP1 SSTORE PUSH2 0x26C DUP2 PUSH2 0x1F49 JUMP JUMPDEST SWAP1 SWAP6 SWAP2 PUSH1 0x1F NOT DUP4 AND SWAP7 DUP6 PUSH1 0x0 MSTORE DUP3 PUSH1 0x0 KECCAK256 SWAP3 PUSH1 0x0 SWAP1 JUMPDEST DUP10 DUP3 LT PUSH2 0x186F JUMPI POP POP SWAP1 DUP4 SWAP3 SWAP2 PUSH2 0x278 SWAP8 SWAP7 SWAP6 SWAP5 PUSH1 0xA SWAP10 LT PUSH2 0xB4B JUMPI POP POP POP DUP2 SHL ADD SWAP1 SSTORE PUSH2 0x263 JUMP JUMPDEST DUP1 DUP8 DUP6 SWAP7 DUP3 SWAP5 SWAP7 DUP7 ADD MLOAD DUP2 SSTORE ADD SWAP6 ADD SWAP4 ADD SWAP1 PUSH2 0x1846 JUMP JUMPDEST DUP6 PUSH1 0x0 MSTORE DUP2 PUSH1 0x0 KECCAK256 DUP5 DUP1 DUP11 ADD PUSH1 0x5 SHR DUP3 ADD SWAP3 DUP5 DUP12 LT PUSH2 0x18C3 JUMPI JUMPDEST ADD PUSH1 0x5 SHR ADD SWAP1 DUP6 SWAP1 JUMPDEST DUP3 DUP2 LT PUSH2 0x18B7 JUMPI POP POP PUSH2 0x17F5 JUMP JUMPDEST PUSH1 0x0 DUP2 SSTORE ADD DUP6 SWAP1 PUSH2 0x18A9 JUMP JUMPDEST SWAP3 POP DUP2 SWAP3 PUSH2 0x18A0 JUMP JUMPDEST ADD MLOAD SWAP1 POP DUP10 DUP1 PUSH2 0x17B8 JUMP JUMPDEST SWAP1 DUP8 SWAP4 POP PUSH1 0x1F NOT DUP4 AND SWAP2 DUP6 PUSH1 0x0 MSTORE DUP10 PUSH1 0x0 KECCAK256 SWAP3 PUSH1 0x0 JUMPDEST DUP12 DUP3 DUP3 LT PUSH2 0x1924 JUMPI POP POP DUP5 GT PUSH2 0x190B JUMPI JUMPDEST POP POP POP DUP2 SHL ADD SWAP1 SSTORE PUSH2 0x17CC JUMP JUMPDEST ADD MLOAD PUSH1 0x0 NOT PUSH1 0xF8 DUP5 PUSH1 0x3 SHL AND SHR NOT AND SWAP1 SSTORE DUP10 DUP1 DUP1 PUSH2 0x18FE JUMP JUMPDEST DUP4 DUP6 ADD MLOAD DUP7 SSTORE DUP12 SWAP8 SWAP1 SWAP6 ADD SWAP5 SWAP4 DUP5 ADD SWAP4 ADD PUSH2 0x18ED JUMP JUMPDEST SWAP1 SWAP2 POP DUP4 PUSH1 0x0 MSTORE DUP8 PUSH1 0x0 KECCAK256 DUP7 DUP1 DUP6 ADD PUSH1 0x5 SHR DUP3 ADD SWAP3 DUP11 DUP7 LT PUSH2 0x1982 JUMPI JUMPDEST SWAP2 DUP10 SWAP2 DUP7 SWAP6 SWAP5 SWAP4 ADD PUSH1 0x5 SHR ADD SWAP2 JUMPDEST DUP3 DUP2 LT PUSH2 0x1973 JUMPI POP POP PUSH2 0x17A3 JUMP JUMPDEST PUSH1 0x0 DUP2 SSTORE DUP6 SWAP5 POP DUP10 SWAP2 ADD PUSH2 0x1965 JUMP JUMPDEST SWAP3 POP DUP2 SWAP3 PUSH2 0x1957 JUMP JUMPDEST PUSH1 0x40 MLOAD PUSH3 0x461BCD PUSH1 0xE5 SHL DUP2 MSTORE PUSH1 0x4 DUP2 ADD DUP5 SWAP1 MSTORE PUSH1 0x27 PUSH1 0x24 DUP3 ADD MSTORE PUSH32 0x4F6E6C7920476F7665726E6D656E742063616E20706572666F726D2074686973 PUSH1 0x44 DUP3 ADD MSTORE PUSH7 0x1030B1BA34B7B7 PUSH1 0xC9 SHL PUSH1 0x64 DUP3 ADD MSTORE PUSH1 0x84 SWAP1 REVERT JUMPDEST CALLVALUE PUSH2 0xA15 JUMPI PUSH1 0x40 CALLDATASIZE PUSH1 0x3 NOT ADD SLT PUSH2 0xA15 JUMPI PUSH2 0x19F9 PUSH2 0x20CF JUMP JUMPDEST PUSH1 0x24 CALLDATALOAD SWAP1 PUSH1 0x4 DUP3 LT ISZERO PUSH2 0xA15 JUMPI PUSH1 0x1 DUP1 PUSH1 0xA0 SHL SUB AND PUSH1 0x0 MSTORE PUSH1 0x2 PUSH1 0x20 MSTORE PUSH1 0x40 PUSH1 0x0 KECCAK256 SWAP1 PUSH1 0xFF DUP1 NOT DUP4 SLOAD AND SWAP2 AND OR SWAP1 SSTORE PUSH1 0x0 DUP1 RETURN JUMPDEST CALLVALUE PUSH2 0xA15 JUMPI PUSH1 0x20 CALLDATASIZE PUSH1 0x3 NOT ADD SLT PUSH2 0xA15 JUMPI PUSH1 0x4 CALLDATALOAD PUSH1 0x0 SLOAD DUP2 LT ISZERO PUSH2 0xA15 JUMPI PUSH2 0x1A54 SWAP1 PUSH2 0x1F49 JUMP JUMPDEST POP DUP1 SLOAD PUSH2 0x1A63 PUSH1 0x1 DUP4 ADD PUSH2 0x2029 JUMP JUMPDEST PUSH1 0x2 DUP4 ADD SLOAD SWAP1 SWAP3 PUSH2 0x1A76 PUSH1 0x3 DUP3 ADD PUSH2 0x2029 JUMP JUMPDEST SWAP1 PUSH2 0x1A83 PUSH1 0x4 DUP3 ADD PUSH2 0x2029 JUMP JUMPDEST PUSH2 0x1A8F PUSH1 0x5 DUP4 ADD PUSH2 0x2029 JUMP JUMPDEST SWAP3 PUSH2 0x1A9C PUSH1 0x6 DUP5 ADD PUSH2 0x2029 JUMP JUMPDEST SWAP4 PUSH1 0x7 DUP5 ADD SLOAD SWAP5 PUSH1 0x8 DUP6 ADD SLOAD SWAP2 PUSH1 0x1 PUSH1 0xA0 SHL PUSH1 0x1 SWAP1 SUB SWAP5 DUP6 PUSH1 0x9 DUP9 ADD SLOAD AND SWAP5 PUSH1 0xA DUP9 ADD SLOAD SWAP8 PUSH1 0xB ADD PUSH2 0x1ACD SWAP1 PUSH2 0x2029 JUMP JUMPDEST SWAP10 PUSH1 0x40 MLOAD SWAP13 DUP14 SWAP13 DUP14 MSTORE DUP13 PUSH2 0x1A0 PUSH1 0x20 DUP2 SWAP3 ADD MSTORE DUP14 ADD PUSH2 0x1AEB SWAP2 PUSH2 0x1DCD JUMP JUMPDEST SWAP1 PUSH1 0x40 DUP14 ADD MSTORE DUP12 DUP2 SUB PUSH1 0x60 DUP14 ADD MSTORE PUSH2 0x1B02 SWAP2 PUSH2 0x1DCD JUMP JUMPDEST DUP11 DUP2 SUB PUSH1 0x80 DUP13 ADD MSTORE PUSH2 0x1B13 SWAP2 PUSH2 0x1DCD JUMP JUMPDEST DUP10 DUP2 SUB PUSH1 0xA0 DUP12 ADD MSTORE PUSH2 0x1B24 SWAP2 PUSH2 0x1DCD JUMP JUMPDEST DUP9 DUP2 SUB PUSH1 0xC0 DUP11 ADD MSTORE PUSH2 0x1B35 SWAP2 PUSH2 0x1DCD JUMP JUMPDEST SWAP5 PUSH1 0xE0 DUP9 ADD MSTORE PUSH2 0x100 DUP8 ADD MSTORE PUSH2 0x120 DUP7 ADD MSTORE DUP2 AND PUSH2 0x140 DUP6 ADD MSTORE PUSH1 0xA0 SHR PUSH1 0xFF AND ISZERO ISZERO PUSH2 0x160 DUP5 ADD MSTORE DUP3 DUP2 SUB PUSH2 0x180 DUP5 ADD MSTORE PUSH2 0xC9E SWAP2 PUSH2 0x1DCD JUMP JUMPDEST CALLVALUE PUSH2 0xA15 JUMPI PUSH1 0x0 CALLDATASIZE PUSH1 0x3 NOT ADD SLT PUSH2 0xA15 JUMPI CALLER PUSH1 0x0 MSTORE PUSH1 0x20 PUSH1 0x2 DUP2 MSTORE PUSH1 0xFF SWAP1 DUP2 PUSH1 0x40 PUSH1 0x0 KECCAK256 SLOAD AND PUSH1 0x4 DUP2 LT ISZERO DUP1 PUSH2 0xBDA JUMPI DUP2 ISZERO SWAP1 DUP2 ISZERO PUSH2 0x1CFC JUMPI JUMPDEST DUP2 ISZERO PUSH2 0x1CEB JUMPI JUMPDEST DUP2 ISZERO PUSH2 0x1CD8 JUMPI JUMPDEST POP PUSH2 0x1BC2 SWAP2 POP PUSH2 0x22A4 JUMP JUMPDEST PUSH1 0x0 SWAP2 PUSH1 0x0 SWAP2 PUSH1 0x1 SLOAD SWAP3 JUMPDEST DUP4 DUP2 LT PUSH2 0x1C9D JUMPI POP PUSH2 0x1BDE DUP5 PUSH2 0x23BC JUMP JUMPDEST SWAP4 PUSH2 0x1BEC PUSH1 0x40 MLOAD SWAP6 DUP7 PUSH2 0x2008 JUMP JUMPDEST DUP1 DUP6 MSTORE PUSH2 0x1BFB PUSH1 0x1F NOT SWAP2 PUSH2 0x23BC JUMP JUMPDEST ADD PUSH1 0x0 JUMPDEST DUP2 DUP2 LT PUSH2 0x1C87 JUMPI POP POP POP PUSH1 0x0 SWAP1 PUSH1 0x0 JUMPDEST DUP4 DUP2 LT PUSH2 0x1C24 JUMPI PUSH1 0x40 MLOAD DUP1 PUSH2 0xC9E DUP8 DUP3 PUSH2 0x1EE7 JUMP JUMPDEST DUP2 PUSH1 0xA PUSH2 0x1C30 DUP4 PUSH2 0x1F49 JUMP JUMPDEST POP ADD SLOAD PUSH1 0xA0 SHR AND PUSH2 0x1C4A JUMPI JUMPDEST PUSH2 0x1C45 SWAP1 PUSH2 0x2186 JUMP JUMPDEST PUSH2 0x1C0F JUMP JUMPDEST SWAP2 PUSH2 0x1C7F PUSH2 0x1C45 SWAP2 PUSH2 0x1C64 PUSH2 0x1C5E DUP7 PUSH2 0x1F49 JUMP JUMPDEST POP PUSH2 0x22F0 JUMP JUMPDEST PUSH2 0x1C6E DUP3 DUP10 PUSH2 0x23D3 JUMP JUMPDEST MSTORE PUSH2 0x1C79 DUP2 DUP9 PUSH2 0x23D3 JUMP JUMPDEST POP PUSH2 0x2186 JUMP JUMPDEST SWAP3 SWAP1 POP PUSH2 0x1C3C JUMP JUMPDEST DUP3 SWAP1 PUSH2 0x1C91 PUSH2 0x2242 JUMP JUMPDEST DUP3 DUP3 DUP10 ADD ADD MSTORE ADD PUSH2 0x1BFF JUMP JUMPDEST DUP3 PUSH1 0xA PUSH2 0x1CA9 DUP4 PUSH2 0x1F49 JUMP JUMPDEST POP ADD SLOAD PUSH1 0xA0 SHR AND PUSH2 0x1CC3 JUMPI JUMPDEST PUSH2 0x1CBE SWAP1 PUSH2 0x2186 JUMP JUMPDEST PUSH2 0x1BCD JUMP JUMPDEST SWAP4 PUSH2 0x1CD0 PUSH2 0x1CBE SWAP2 PUSH2 0x2186 JUMP JUMPDEST SWAP5 SWAP1 POP PUSH2 0x1CB5 JUMP JUMPDEST SWAP1 POP PUSH2 0xBDA JUMPI PUSH1 0x3 PUSH2 0x1BC2 SWAP2 EQ DUP5 PUSH2 0x1BB7 JUMP JUMPDEST DUP1 SWAP2 POP PUSH2 0xBDA JUMPI PUSH1 0x2 DUP3 EQ SWAP1 PUSH2 0x1BB0 JUMP JUMPDEST POP POP PUSH1 0x1 DUP2 EQ PUSH1 0x0 PUSH2 0x1BA9 JUMP JUMPDEST CALLVALUE PUSH2 0xA15 JUMPI PUSH1 0x20 CALLDATASIZE PUSH1 0x3 NOT ADD SLT PUSH2 0xA15 JUMPI PUSH1 0x4 CALLDATALOAD PUSH2 0x1D25 PUSH2 0x2242 JUMP JUMPDEST POP CALLER PUSH1 0x0 MSTORE PUSH1 0x2 PUSH1 0x20 MSTORE PUSH1 0xFF PUSH1 0x40 PUSH1 0x0 KECCAK256 SLOAD AND SWAP1 PUSH1 0x4 DUP3 LT ISZERO SWAP2 DUP3 PUSH2 0xBDA JUMPI DUP1 ISZERO SWAP3 DUP4 ISZERO PUSH2 0x1DBF JUMPI JUMPDEST DUP4 ISZERO PUSH2 0x1DAE JUMPI JUMPDEST DUP4 ISZERO PUSH2 0x1D95 JUMPI JUMPDEST PUSH2 0xC9E PUSH2 0x1D81 PUSH2 0x1C5E DUP6 PUSH2 0x1D6F DUP9 PUSH2 0x22A4 JUMP JUMPDEST PUSH2 0x1D7C PUSH1 0x1 SLOAD DUP3 LT PUSH2 0x2195 JUMP JUMPDEST PUSH2 0x1F49 JUMP JUMPDEST PUSH1 0x40 MLOAD SWAP2 DUP3 SWAP2 PUSH1 0x20 DUP4 MSTORE PUSH1 0x20 DUP4 ADD SWAP1 PUSH2 0x1E0D JUMP JUMPDEST SWAP1 SWAP3 POP PUSH2 0xBDA JUMPI PUSH1 0x3 SWAP2 SWAP1 SWAP2 EQ SWAP1 PUSH2 0x1C5E PUSH2 0x1D81 PUSH2 0x1D5C JUMP JUMPDEST DUP1 SWAP4 POP PUSH2 0xBDA JUMPI PUSH1 0x2 DUP2 EQ SWAP3 PUSH2 0x1D55 JUMP JUMPDEST POP PUSH1 0x1 DUP2 EQ SWAP3 POP PUSH1 0x0 PUSH2 0x1D4E JUMP JUMPDEST SWAP2 SWAP1 DUP3 MLOAD SWAP3 DUP4 DUP3 MSTORE PUSH1 0x0 JUMPDEST DUP5 DUP2 LT PUSH2 0x1DF9 JUMPI POP POP DUP3 PUSH1 0x0 PUSH1 0x20 DUP1 SWAP5 SWAP6 DUP5 ADD ADD MSTORE PUSH1 0x1F DUP1 NOT SWAP2 ADD AND ADD ADD SWAP1 JUMP JUMPDEST PUSH1 0x20 DUP2 DUP4 ADD DUP2 ADD MLOAD DUP5 DUP4 ADD DUP3 ADD MSTORE ADD PUSH2 0x1DD8 JUMP JUMPDEST SWAP1 PUSH2 0x1EE4 SWAP2 DUP1 MLOAD DUP3 MSTORE PUSH2 0x1E8D PUSH2 0x1E7B PUSH2 0x1E69 PUSH2 0x1E57 PUSH2 0x1E3B PUSH1 0x20 DUP7 ADD MLOAD PUSH2 0x1A0 DUP1 PUSH1 0x20 DUP11 ADD MSTORE DUP9 ADD SWAP1 PUSH2 0x1DCD JUMP JUMPDEST PUSH1 0x40 DUP7 ADD MLOAD PUSH1 0x40 DUP9 ADD MSTORE PUSH1 0x60 DUP7 ADD MLOAD DUP8 DUP3 SUB PUSH1 0x60 DUP10 ADD MSTORE PUSH2 0x1DCD JUMP JUMPDEST PUSH1 0x80 DUP6 ADD MLOAD DUP7 DUP3 SUB PUSH1 0x80 DUP9 ADD MSTORE PUSH2 0x1DCD JUMP JUMPDEST PUSH1 0xA0 DUP5 ADD MLOAD DUP6 DUP3 SUB PUSH1 0xA0 DUP8 ADD MSTORE PUSH2 0x1DCD JUMP JUMPDEST PUSH1 0xC0 DUP4 ADD MLOAD DUP5 DUP3 SUB PUSH1 0xC0 DUP7 ADD MSTORE PUSH2 0x1DCD JUMP JUMPDEST SWAP2 PUSH1 0xE0 DUP3 ADD MLOAD PUSH1 0xE0 DUP3 ADD MSTORE PUSH2 0x100 DUP1 DUP4 ADD MLOAD SWAP1 DUP3 ADD MSTORE PUSH1 0x1 DUP1 PUSH1 0xA0 SHL SUB PUSH2 0x120 DUP2 DUP2 DUP6 ADD MLOAD AND SWAP1 DUP4 ADD MSTORE PUSH2 0x140 SWAP1 DUP2 DUP5 ADD MLOAD AND SWAP1 DUP3 ADD MSTORE PUSH2 0x160 DUP1 DUP4 ADD MLOAD ISZERO ISZERO SWAP1 DUP3 ADD MSTORE PUSH2 0x180 DUP1 SWAP3 ADD MLOAD SWAP2 DUP2 DUP5 SUB SWAP2 ADD MSTORE PUSH2 0x1DCD JUMP JUMPDEST SWAP1 JUMP JUMPDEST PUSH1 0x20 DUP1 DUP3 ADD SWAP1 DUP1 DUP4 MSTORE DUP4 MLOAD DUP1 SWAP3 MSTORE PUSH1 0x40 DUP4 ADD SWAP3 DUP2 PUSH1 0x40 DUP5 PUSH1 0x5 SHL DUP4 ADD ADD SWAP6 ADD SWAP4 PUSH1 0x0 SWAP2 JUMPDEST DUP5 DUP4 LT PUSH2 0x1F1B JUMPI POP POP POP POP POP POP SWAP1 JUMP JUMPDEST SWAP1 SWAP2 SWAP3 SWAP4 SWAP5 SWAP6 DUP5 DUP1 PUSH2 0x1F39 PUSH1 0x1 SWAP4 PUSH1 0x3F NOT DUP7 DUP3 SUB ADD DUP8 MSTORE DUP11 MLOAD PUSH2 0x1E0D JUMP JUMPDEST SWAP9 ADD SWAP4 ADD SWAP4 ADD SWAP2 SWAP5 SWAP4 SWAP3 SWAP1 PUSH2 0x1F0B JUMP JUMPDEST SWAP1 PUSH1 0x0 SWAP2 DUP3 SLOAD DUP2 LT ISZERO PUSH2 0x1F83 JUMPI PUSH1 0xC SWAP1 DUP4 DUP1 MSTORE MUL PUSH32 0x290DECD9548B62A8D60345A988386FC84BA6BC95484008F6362F93160EF3E563 ADD SWAP2 SWAP1 JUMP JUMPDEST PUSH4 0x4E487B71 PUSH1 0xE0 SHL DUP4 MSTORE PUSH1 0x32 PUSH1 0x4 MSTORE PUSH1 0x24 DUP4 REVERT JUMPDEST SWAP1 PUSH1 0x1 DUP3 DUP2 SHR SWAP3 AND DUP1 ISZERO PUSH2 0x1FC7 JUMPI JUMPDEST PUSH1 0x20 DUP4 LT EQ PUSH2 0x1FB1 JUMPI JUMP JUMPDEST PUSH4 0x4E487B71 PUSH1 0xE0 SHL PUSH1 0x0 MSTORE PUSH1 0x22 PUSH1 0x4 MSTORE PUSH1 0x24 PUSH1 0x0 REVERT JUMPDEST SWAP2 PUSH1 0x7F AND SWAP2 PUSH2 0x1FA6 JUMP JUMPDEST PUSH2 0x1A0 DUP2 ADD SWAP1 DUP2 LT PUSH1 0x1 PUSH1 0x1 PUSH1 0x40 SHL SUB DUP3 GT OR PUSH2 0xBC4 JUMPI PUSH1 0x40 MSTORE JUMP JUMPDEST PUSH1 0x40 DUP2 ADD SWAP1 DUP2 LT PUSH1 0x1 PUSH1 0x1 PUSH1 0x40 SHL SUB DUP3 GT OR PUSH2 0xBC4 JUMPI PUSH1 0x40 MSTORE JUMP JUMPDEST SWAP1 PUSH1 0x1F DUP1 NOT SWAP2 ADD AND DUP2 ADD SWAP1 DUP2 LT PUSH1 0x1 PUSH1 0x1 PUSH1 0x40 SHL SUB DUP3 GT OR PUSH2 0xBC4 JUMPI PUSH1 0x40 MSTORE JUMP JUMPDEST SWAP1 PUSH1 0x40 MLOAD SWAP2 DUP3 PUSH1 0x0 DUP3 SLOAD SWAP3 PUSH2 0x203D DUP5 PUSH2 0x1F97 JUMP JUMPDEST SWAP1 DUP2 DUP5 MSTORE PUSH1 0x1 SWAP5 DUP6 DUP2 AND SWAP1 DUP2 PUSH1 0x0 EQ PUSH2 0x20AC JUMPI POP PUSH1 0x1 EQ PUSH2 0x2069 JUMPI JUMPDEST POP POP PUSH2 0x2067 SWAP3 POP SUB DUP4 PUSH2 0x2008 JUMP JUMPDEST JUMP JUMPDEST SWAP1 SWAP4 SWAP2 POP PUSH1 0x0 MSTORE PUSH1 0x20 SWAP1 DUP2 PUSH1 0x0 KECCAK256 SWAP4 PUSH1 0x0 SWAP2 JUMPDEST DUP2 DUP4 LT PUSH2 0x2094 JUMPI POP POP PUSH2 0x2067 SWAP4 POP DUP3 ADD ADD CODESIZE DUP1 PUSH2 0x2059 JUMP JUMPDEST DUP6 SLOAD DUP9 DUP5 ADD DUP6 ADD MSTORE SWAP5 DUP6 ADD SWAP5 DUP8 SWAP5 POP SWAP2 DUP4 ADD SWAP2 PUSH2 0x207C JUMP JUMPDEST SWAP2 POP POP PUSH2 0x2067 SWAP5 POP PUSH1 0x20 SWAP3 POP PUSH1 0xFF NOT AND DUP3 DUP5 ADD MSTORE ISZERO ISZERO PUSH1 0x5 SHL DUP3 ADD ADD CODESIZE DUP1 PUSH2 0x2059 JUMP JUMPDEST PUSH1 0x4 CALLDATALOAD SWAP1 PUSH1 0x1 PUSH1 0x1 PUSH1 0xA0 SHL SUB DUP3 AND DUP3 SUB PUSH2 0xA15 JUMPI JUMP JUMPDEST DUP2 PUSH1 0x1F DUP3 ADD SLT ISZERO PUSH2 0xA15 JUMPI DUP1 CALLDATALOAD SWAP1 PUSH1 0x1 PUSH1 0x1 PUSH1 0x40 SHL SUB DUP3 GT PUSH2 0xBC4 JUMPI PUSH1 0x40 MLOAD SWAP3 PUSH2 0x2119 PUSH1 0x1F DUP5 ADD PUSH1 0x1F NOT AND PUSH1 0x20 ADD DUP6 PUSH2 0x2008 JUMP JUMPDEST DUP3 DUP5 MSTORE PUSH1 0x20 DUP4 DUP4 ADD ADD GT PUSH2 0xA15 JUMPI DUP2 PUSH1 0x0 SWAP3 PUSH1 0x20 DUP1 SWAP4 ADD DUP4 DUP7 ADD CALLDATACOPY DUP4 ADD ADD MSTORE SWAP1 JUMP JUMPDEST ISZERO PUSH2 0x2142 JUMPI JUMP JUMPDEST PUSH1 0x64 PUSH1 0x40 MLOAD PUSH3 0x461BCD PUSH1 0xE5 SHL DUP2 MSTORE PUSH1 0x20 PUSH1 0x4 DUP3 ADD MSTORE PUSH1 0x20 PUSH1 0x24 DUP3 ADD MSTORE PUSH32 0x4F6E6C79204E474F2063616E20706572666F726D207468697320616374696F6E PUSH1 0x44 DUP3 ADD MSTORE REVERT JUMPDEST PUSH1 0x0 NOT DUP2 EQ PUSH2 0x11F1 JUMPI PUSH1 0x1 ADD SWAP1 JUMP JUMPDEST ISZERO PUSH2 0x219C JUMPI JUMP JUMPDEST PUSH1 0x40 MLOAD PUSH3 0x461BCD PUSH1 0xE5 SHL DUP2 MSTORE PUSH1 0x20 PUSH1 0x4 DUP3 ADD MSTORE PUSH1 0x15 PUSH1 0x24 DUP3 ADD MSTORE PUSH21 0x149958DBDC9908191BD95CC81B9BDD08195E1A5CDD PUSH1 0x5A SHL PUSH1 0x44 DUP3 ADD MSTORE PUSH1 0x64 SWAP1 REVERT JUMPDEST ISZERO PUSH2 0x21E0 JUMPI JUMP JUMPDEST PUSH1 0x40 MLOAD PUSH3 0x461BCD PUSH1 0xE5 SHL DUP2 MSTORE PUSH1 0x20 PUSH1 0x4 DUP3 ADD MSTORE PUSH1 0x12 PUSH1 0x24 DUP3 ADD MSTORE PUSH18 0x5265636F726420697320696E616374697665 PUSH1 0x70 SHL PUSH1 0x44 DUP3 ADD MSTORE PUSH1 0x64 SWAP1 REVERT JUMPDEST PUSH1 0x40 MLOAD SWAP1 PUSH2 0x2227 DUP3 PUSH2 0x1FED JUMP JUMPDEST PUSH1 0xC DUP3 MSTORE PUSH12 0x6865616C7468537461747573 PUSH1 0xA0 SHL PUSH1 0x20 DUP4 ADD MSTORE JUMP JUMPDEST PUSH1 0x40 MLOAD SWAP1 PUSH2 0x224F DUP3 PUSH2 0x1FD1 JUMP JUMPDEST DUP2 PUSH2 0x180 PUSH1 0x0 SWAP2 DUP3 DUP2 MSTORE PUSH1 0x60 SWAP3 DUP4 PUSH1 0x20 DUP4 ADD MSTORE DUP1 PUSH1 0x40 DUP4 ADD MSTORE DUP4 DUP1 DUP4 ADD MSTORE DUP4 PUSH1 0x80 DUP4 ADD MSTORE DUP4 PUSH1 0xA0 DUP4 ADD MSTORE DUP4 PUSH1 0xC0 DUP4 ADD MSTORE DUP1 PUSH1 0xE0 DUP4 ADD MSTORE DUP1 PUSH2 0x100 DUP4 ADD MSTORE DUP1 PUSH2 0x120 DUP4 ADD MSTORE DUP1 PUSH2 0x140 DUP4 ADD MSTORE PUSH2 0x160 DUP3 ADD MSTORE ADD MSTORE JUMP JUMPDEST ISZERO PUSH2 0x22AB JUMPI JUMP JUMPDEST PUSH1 0x40 MLOAD PUSH3 0x461BCD PUSH1 0xE5 SHL DUP2 MSTORE PUSH1 0x20 PUSH1 0x4 DUP3 ADD MSTORE PUSH1 0x1B PUSH1 0x24 DUP3 ADD MSTORE PUSH32 0x4163636573732064656E6965643A20696E76616C696420726F6C650000000000 PUSH1 0x44 DUP3 ADD MSTORE PUSH1 0x64 SWAP1 REVERT JUMPDEST SWAP1 PUSH1 0x40 MLOAD PUSH2 0x22FD DUP2 PUSH2 0x1FD1 JUMP JUMPDEST PUSH2 0x180 PUSH2 0x23B7 PUSH1 0xB DUP4 SWAP6 DUP1 SLOAD DUP6 MSTORE PUSH2 0x2317 PUSH1 0x1 DUP3 ADD PUSH2 0x2029 JUMP JUMPDEST PUSH1 0x20 DUP7 ADD MSTORE PUSH1 0x2 DUP2 ADD SLOAD PUSH1 0x40 DUP7 ADD MSTORE PUSH2 0x2332 PUSH1 0x3 DUP3 ADD PUSH2 0x2029 JUMP JUMPDEST PUSH1 0x60 DUP7 ADD MSTORE PUSH2 0x2343 PUSH1 0x4 DUP3 ADD PUSH2 0x2029 JUMP JUMPDEST PUSH1 0x80 DUP7 ADD MSTORE PUSH2 0x2354 PUSH1 0x5 DUP3 ADD PUSH2 0x2029 JUMP JUMPDEST PUSH1 0xA0 DUP7 ADD MSTORE PUSH2 0x2365 PUSH1 0x6 DUP3 ADD PUSH2 0x2029 JUMP JUMPDEST PUSH1 0xC0 DUP7 ADD MSTORE PUSH1 0x7 DUP2 ADD SLOAD PUSH1 0xE0 DUP7 ADD MSTORE PUSH1 0x8 DUP2 ADD SLOAD PUSH2 0x100 DUP7 ADD MSTORE PUSH1 0x9 DUP2 ADD SLOAD PUSH1 0x1 PUSH1 0x1 PUSH1 0xA0 SHL SUB SWAP1 DUP2 AND PUSH2 0x120 DUP8 ADD MSTORE PUSH1 0xA DUP3 ADD SLOAD SWAP1 DUP2 AND PUSH2 0x140 DUP8 ADD MSTORE PUSH1 0xA0 SHR PUSH1 0xFF AND ISZERO ISZERO PUSH2 0x160 DUP7 ADD MSTORE ADD PUSH2 0x2029 JUMP JUMPDEST SWAP2 ADD MSTORE JUMP JUMPDEST PUSH1 0x1 PUSH1 0x1 PUSH1 0x40 SHL SUB DUP2 GT PUSH2 0xBC4 JUMPI PUSH1 0x5 SHL PUSH1 0x20 ADD SWAP1 JUMP JUMPDEST DUP1 MLOAD DUP3 LT ISZERO PUSH2 0x23E7 JUMPI PUSH1 0x20 SWAP2 PUSH1 0x5 SHL ADD ADD SWAP1 JUMP JUMPDEST PUSH4 0x4E487B71 PUSH1 0xE0 SHL PUSH1 0x0 MSTORE PUSH1 0x32 PUSH1 0x4 MSTORE PUSH1 0x24 PUSH1 0x0 REVERT INVALID LOG2 PUSH5 0x6970667358 0x22 SLT KECCAK256 EXTCODECOPY BASEFEE 0xB2 PUSH27 0xB146049F09310C835A99202FA8988D4C32B7D3F968E46D7972DF78 TIMESTAMP PUSH5 0x736F6C6343 STOP ADDMOD SGT STOP CALLER "},"methodIdentifiers":{"createRecord(string,uint256,string,string,string,string)":"6a947adb","deactivateRecord(uint256,string)":"de395cce","getActiveRecords()":"297f47c0","getAllRecords()":"a7f9fe72","getRecord(uint256)":"03e9e609","recordCount()":"900407bc","records(uint256)":"34461067","roles(address)":"99374642","setRole(address,uint8)":"571c3e60","transferGuardianship(uint256,string,string)":"647deef6","updateRecord(uint256,string,string,string)":"e5b9b9f6"}}}}}