{
  "_format": "hh-sol-artifact-1",
  "contractName": "ChildWelfare",
  "sourceName": "contracts/ChildWelfare.sol",
  "abi": [
    {
      "anonymous": false,
      "inputs": [
        {
          "indexed": true,
          "internalType": "uint256",
          "name": "recordId",
          "type": "uint256"
        },
        {
          "indexed": true,
          "internalType": "address",
          "name": "createdBy",
          "type": "address"
        },
        {
          "indexed": false,
          "internalType": "string",
          "name": "name",
          "type": "string"
        }
      ],
      "name": "RecordCreated",
      "type": "event"
    },
    {
      "inputs": [
        {
          "internalType": "string",
          "name": "_name",
          "type": "string"
        },
        {
          "internalType": "uint256",
          "name": "_age",
          "type": "uint256"
        },
        {
          "internalType": "string",
          "name": "_healthStatus",
          "type": "string"
        },
        {
          "internalType": "string",
          "name": "_location",
          "type": "string"
        },
        {
          "internalType": "string",
          "name": "_guardian",
          "type": "string"
        },
        {
          "internalType": "string",
          "name": "_metadata",
          "type": "string"
        }
      ],
      "name": "createRecord",
      "outputs": [
        {
          "internalType": "uint256",
          "name": "",
          "type": "uint256"
        }
      ],
      "stateMutability": "nonpayable",
      "type": "function"
    },
    {
      "inputs": [
        {
          "internalType": "uint256",
          "name": "_recordId",
          "type": "uint256"
        },
        {
          "internalType": "string",
          "name": "_reason",
          "type": "string"
        }
      ],
      "name": "deactivateRecord",
      "outputs": [],
      "stateMutability": "nonpayable",
      "type": "function"
    },
    {
      "inputs": [],
      "name": "getActiveRecords",
      "outputs": [
        {
          "components": [
            {
              "internalType": "uint256",
              "name": "id",
              "type": "uint256"
            },
            {
              "internalType": "string",
              "name": "name",
              "type": "string"
            },
            {
              "internalType": "uint256",
              "name": "age",
              "type": "uint256"
            },
            {
              "internalType": "string",
              "name": "healthStatus",
              "type": "string"
            },
            {
              "internalType": "string",
              "name": "location",
              "type": "string"
            },
            {
              "internalType": "string",
              "name": "guardian",
              "type": "string"
            },
            {
              "internalType": "string",
              "name": "status",
              "type": "string"
            },
            {
              "internalType": "uint256",
              "name": "createdAt",
              "type": "uint256"
            },
            {
              "internalType": "uint256",
              "name": "lastUpdatedAt",
              "type": "uint256"
            },
            {
              "internalType": "address",
              "name": "createdBy",
              "type": "address"
            },
            {
              "internalType": "address",
              "name": "lastUpdatedBy",
              "type": "address"
            },
            {
              "internalType": "bool",
              "name": "isActive",
              "type": "bool"
            },
            {
              "internalType": "string",
              "name": "metadata",
              "type": "string"
            }
          ],
          "internalType": "struct ChildWelfare.ChildRecord[]",
          "name": "",
          "type": "tuple[]"
        }
      ],
      "stateMutability": "view",
      "type": "function"
    },
    {
      "inputs": [],
      "name": "getAllRecords",
      "outputs": [
        {
          "components": [
            {
              "internalType": "uint256",
              "name": "id",
              "type": "uint256"
            },
            {
              "internalType": "string",
              "name": "name",
              "type": "string"
            },
            {
              "internalType": "uint256",
              "name": "age",
              "type": "uint256"
            },
            {
              "internalType": "string",
              "name": "healthStatus",
              "type": "string"
            },
            {
              "internalType": "string",
              "name": "location",
              "type": "string"
            },
            {
              "internalType": "string",
              "name": "guardian",
              "type": "string"
            },
            {
              "internalType": "string",
              "name": "status",
              "type": "string"
            },
            {
              "internalType": "uint256",
              "name": "createdAt",
              "type": "uint256"
            },
            {
              "internalType": "uint256",
              "name": "lastUpdatedAt",
              "type": "uint256"
            },
            {
              "internalType": "address",
              "name": "createdBy",
              "type": "address"
            },
            {
              "internalType": "address",
              "name": "lastUpdatedBy",
              "type": "address"
            },
            {
              "internalType": "bool",
              "name": "isActive",
              "type": "bool"
            },
            {
              "internalType": "string",
              "name": "metadata",
              "type": "string"
            }
          ],
          "internalType": "struct ChildWelfare.ChildRecord[]",
          "name": "",
          "type": "tuple[]"
        }
      ],
      "stateMutability": "view",
      "type": "function"
    },
    {
      "inputs": [
        {
          "internalType": "uint256",
          "name": "_recordId",
          "type": "uint256"
        }
      ],
      "name": "getRecord",
      "outputs": [
        {
          "components": [
            {
              "internalType": "uint256",
              "name": "id",
              "type": "uint256"
            },
            {
              "internalType": "string",
              "name": "name",
              "type": "string"
            },
            {
              "internalType": "uint256",
              "name": "age",
              "type": "uint256"
            },
            {
              "internalType": "string",
              "name": "healthStatus",
              "type": "string"
            },
            {
              "internalType": "string",
              "name": "location",
              "type": "string"
            },
            {
              "internalType": "string",
              "name": "guardian",
              "type": "string"
            },
            {
              "internalType": "string",
              "name": "status",
              "type": "string"
            },
            {
              "internalType": "uint256",
              "name": "createdAt",
              "type": "uint256"
            },
            {
              "internalType": "uint256",
              "name": "lastUpdatedAt",
              "type": "uint256"
            },
            {
              "internalType": "address",
              "name": "createdBy",
              "type": "address"
            },
            {
              "internalType": "address",
              "name": "lastUpdatedBy",
              "type": "address"
            },
            {
              "internalType": "bool",
              "name": "isActive",
              "type": "bool"
            },
            {
              "internalType": "string",
              "name": "metadata",
              "type": "string"
            }
          ],
          "internalType": "struct ChildWelfare.ChildRecord",
          "name": "",
          "type": "tuple"
        }
      ],
      "stateMutability": "view",
      "type": "function"
    },
    {
      "inputs": [],
      "name": "recordCount",
      "outputs": [
        {
          "internalType": "uint256",
          "name": "",
          "type": "uint256"
        }
      ],
      "stateMutability": "view",
      "type": "function"
    },
    {
      "inputs": [
        {
          "internalType": "uint256",
          "name": "",
          "type": "uint256"
        }
      ],
      "name": "records",
      "outputs": [
        {
          "internalType": "uint256",
          "name": "id",
          "type": "uint256"
        },
        {
          "internalType": "string",
          "name": "name",
          "type": "string"
        },
        {
          "internalType": "uint256",
          "name": "age",
          "type": "uint256"
        },
        {
          "internalType": "string",
          "name": "healthStatus",
          "type": "string"
        },
        {
          "internalType": "string",
          "name": "location",
          "type": "string"
        },
        {
          "internalType": "string",
          "name": "guardian",
          "type": "string"
        },
        {
          "internalType": "string",
          "name": "status",
          "type": "string"
        },
        {
          "internalType": "uint256",
          "name": "createdAt",
          "type": "uint256"
        },
        {
          "internalType": "uint256",
          "name": "lastUpdatedAt",
          "type": "uint256"
        },
        {
          "internalType": "address",
          "name": "createdBy",
          "type": "address"
        },
        {
          "internalType": "address",
          "name": "lastUpdatedBy",
          "type": "address"
        },
        {
          "internalType": "bool",
          "name": "isActive",
          "type": "bool"
        },
        {
          "internalType": "string",
          "name": "metadata",
          "type": "string"
        }
      ],
      "stateMutability": "view",
      "type": "function"
    },
    {
      "inputs": [
        {
          "internalType": "address",
          "name": "",
          "type": "address"
        }
      ],
      "name": "roles",
      "outputs": [
        {
          "internalType": "enum ChildWelfare.Role",
          "name": "",
          "type": "uint8"
        }
      ],
      "stateMutability": "view",
      "type": "function"
    },
    {
      "inputs": [
        {
          "internalType": "address",
          "name": "_user",
          "type": "address"
        },
        {
          "internalType": "enum ChildWelfare.Role",
          "name": "_role",
          "type": "uint8"
        }
      ],
      "name": "setRole",
      "outputs": [],
      "stateMutability": "nonpayable",
      "type": "function"
    },
    {
      "inputs": [
        {
          "internalType": "uint256",
          "name": "_recordId",
          "type": "uint256"
        },
        {
          "internalType": "string",
          "name": "_newGuardian",
          "type": "string"
        },
        {
          "internalType": "string",
          "name": "_reason",
          "type": "string"
        }
      ],
      "name": "transferGuardianship",
      "outputs": [],
      "stateMutability": "nonpayable",
      "type": "function"
    },
    {
      "inputs": [
        {
          "internalType": "uint256",
          "name": "_recordId",
          "type": "uint256"
        },
        {
          "internalType": "string",
          "name": "_field",
          "type": "string"
        },
        {
          "internalType": "string",
          "name": "_newValue",
          "type": "string"
        },
        {
          "internalType": "string",
          "name": "_reason",
          "type": "string"
        }
      ],
      "name": "updateRecord",
      "outputs": [],
      "stateMutability": "nonpayable",
      "type": "function"
    }
  ],
  "bytecode": "0x6080806040523461001657612433908161001c8239f35b600080fdfe6080604052600436101561001257600080fd5b60003560e01c806303e9e60914611d09578063297f47c014611b6f5780633446106714611a2d578063571c3e60146119e0578063647deef6146116e75780636a947adb14610d54578063900407bc14610d365780639937464214610cf0578063a7f9fe7214610bf0578063de395cce14610a1a5763e5b9b9f61461009557600080fd5b34610a15576080366003190112610a15576001600160401b0360043560248035838111610a15576100ca9036906004016120e5565b604435848111610a15576100e29036906004016120e5565b90606435858111610a15576100fb9036906004016120e5565b60019261010a84548710612195565b61012660ff600a61011a89611f49565b50015460a01c166121d9565b82519260209384820190812061013a61221a565b805190870120036109b257336000526002855260ff60406000205416600481101561099d57860361094a575b7f2361458367e696363fbcc70777d07ebbd2394e89fd0adcaf147faccd1d294d6082518220636e616d6560e01b876040516101a081611fed565b6004815201520361043a575050836101b787611f49565b5001908051908882116104255781906101d08454611f97565b601f81116103d2575b508590601f831160011461036f57600092610364575b5050600019600383901b1c191690851b1790555b600661020e86611f49565b500193815196871161035057506102258454611f97565b601f8111610307575b5081601f8711600114610297575094806102789594938193600a9860009461028c575b50501b916000199060031b1c19161790555b61026c81611f49565b50600842910155611f49565b500180546001600160a01b03191633179055005b015192503880610251565b909591601f198316968560005282600020926000905b8982106102f05750509083929161027897969594600a99106102d7575b505050811b019055610263565b015160001960f88460031b161c191690553880806102ca565b8087859682949686015181550195019301906102ad565b8460005282600020601f880160051c810191848910610346575b601f0160051c019084905b82811061033a57505061022e565b6000815501849061032c565b9091508190610321565b634e487b7160e01b60009081526041600452fd5b0151905038806101ef565b90879350601f1983169185600052876000209260005b898282106103bc57505084116103a3575b505050811b019055610203565b015160001960f88460031b161c19169055388080610396565b8385015186558b97909501949384019301610385565b9091508360005285600020601f840160051c81019187851061041b575b84939291601f8a920160051c01915b82811061040c5750506101d9565b600081558594508991016103fe565b90915081906103ef565b86634e487b7160e01b60005260416004526000fd5b8151812061044661221a565b80519087012003610555575050600361045e87611f49565b5001908051908882116104255781906104778454611f97565b601f8111610502575b508590601f83116001146104b9576000926104ae575b5050600019600383901b1c191690851b179055610203565b015190503880610496565b90879350601f1983169185600052876000209260005b898282106104ec57505084116103a357505050811b019055610203565b8385015186558b979095019493840193016104cf565b9091508360005285600020601f840160051c81019187851061054b575b84939291601f8a920160051c01915b82811061053c575050610480565b6000815585945089910161052e565b909150819061051f565b7f32418106fd89af94305d9787acb608a501b749f5f1783cfca7b3f864595254ca82518220673637b1b0ba34b7b760c11b8760405161059381611fed565b6008815201520361069657505060046105ab87611f49565b5001908051908882116104255781906105c48454611f97565b601f8111610643575b508590601f83116001146105fa576000926104ae575050600019600383901b1c191690851b179055610203565b90879350601f1983169185600052876000209260005b8982821061062d57505084116103a357505050811b019055610203565b8385015186558b97909501949384019301610610565b9091508360005285600020601f840160051c81019187851061068c575b84939291601f8a920160051c01915b82811061067d5750506105cd565b6000815585945089910161066f565b9091508190610660565b7f8fbcb4375b910093bcf636b6b2f26b26eda2a29ef5a8ee7de44b5743c3bf9a28825182206733bab0b93234b0b760c11b876040516106d481611fed565b600881520152036107d757505060056106ec87611f49565b5001908051908882116104255781906107058454611f97565b601f8111610784575b508590601f831160011461073b576000926104ae575050600019600383901b1c191690851b179055610203565b90879350601f1983169185600052876000209260005b8982821061076e57505084116103a357505050811b019055610203565b8385015186558b97909501949384019301610751565b9091508360005285600020601f840160051c8101918785106107cd575b84939291601f8a920160051c01915b8281106107be57505061070e565b600081558594508991016107b0565b90915081906107a1565b7f7a9d3a032b8ff274f09714b56ba8e5ed776ec9638ca303069bc3a3267bb22f6591519020676d6574616461746160c01b8560405161081581611fed565b6008815201520361091657600b61082b87611f49565b5001908051908882116104255781906108448454611f97565b601f81116108c3575b508590601f831160011461087a576000926104ae575050600019600383901b1c191690851b179055610203565b90879350601f1983169185600052876000209260005b898282106108ad57505084116103a357505050811b019055610203565b8385015186558b97909501949384019301610890565b9091508360005285600020601f840160051c81019187851061090c575b84939291601f8a920160051c01915b8281106108fd57505061084d565b600081558594508991016108ef565b90915081906108e0565b60405162461bcd60e51b815260048101849052600d818701526c125b9d985b1a5908199a595b19609a1b6044820152606490fd5b60405162461bcd60e51b8152600481018690526026818901527f4f6e6c7920486f73706974616c2063616e20757064617465206865616c74682060448201526573746174757360d01b6064820152608490fd5b87634e487b7160e01b60005260216004526000fd5b336000526002855260ff60406000205416600481101561099d57156101665760405162461bcd60e51b815260048101869052601b818901527f4f6e6c79204e474f2063616e20757064617465207265636f72647300000000006044820152606490fd5b600080fd5b34610a15576040366003190112610a15576001600160401b03600435602435828111610a1557610a4e9036906004016120e5565b3360005260206002815260ff604060002054166004811015610bda57610a74901561213b565b600190610a8382548510612195565b600a610a8e85611f49565b5001805460ff60a01b191690556006610aa685611f49565b5001928051958611610bc457610abc8454611f97565b601f8111610b7b575b5081601f8711600114610b0c575094806102789594938193600a98600094610b015750501b916000199060031b1c191617905561026c81611f49565b015192508880610251565b909591601f198316968560005282600020926000905b898210610b645750509083929161027897969594600a9910610b4b57505050811b019055610263565b015160001960f88460031b161c191690558680806102ca565b808785968294968601518155019501930190610b22565b8460005282600020601f880160051c810191848910610bba575b601f0160051c019084905b828110610bae575050610ac5565b60008155018490610ba0565b9091508190610b95565b634e487b7160e01b600052604160045260246000fd5b634e487b7160e01b600052602160045260246000fd5b34610a15576000366003190112610a15573360005260206002815260ff60406000205416600481101580610bda578115908115610ce3575b8115610cd2575b8115610cbf575b50610c4191506122a4565b600054610c4d816123bc565b90610c5b6040519283612008565b80825260008080527f290decd9548b62a8d60345a988386fc84ba6bc95484008f6362f93160ef3e563938084015b838310610ca25760405180610c9e8782611ee7565b0390f35b600c82600192610cb1896122f0565b815201960192019194610c89565b9050610bda576003610c41911483610c36565b809150610bda576002821490610c2f565b5050600181146000610c28565b34610a15576020366003190112610a15576001600160a01b03610d116120cf565b16600052600260205260ff604060002054166040516004821015610bda576020918152f35b34610a15576000366003190112610a15576020600154604051908152f35b34610a155760c0366003190112610a15576004356001600160401b038111610a1557610d849036906004016120e5565b6024356044356001600160401b038111610a1557610da69036906004016120e5565b6064356001600160401b038111610a1557610dc59036906004016120e5565b6084356001600160401b038111610a1557610de49036906004016120e5565b9060a4356001600160401b038111610a1557610e049036906004016120e5565b9233600052600260205260ff604060002054166004811015610bda57610e2a901561213b565b601285116116a2576001549460405195610e4387611fd1565b865286602087015260408601526060850152608084015260a0830152604051610e6b81611fed565b600681526541637469766560d01b602082015260c08301524260e0830152426101008301523361012083015233610140830152600161016083015261018082015260005468010000000000000000811015610bc457806001610ed09201600055611f49565b92909261168c578151835560208201519283516001600160401b038111610bc457610efe6001830154611f97565b601f8111611645575b506020601f82116001146115d65781929394956000926115cb575b50508160011b916000199060031b1c19161760018201555b6040830151600282015560608301519283516001600160401b038111610bc457610f676003840154611f97565b601f8111611584575b506020601f821160011461151557819293949560009261150a575b50508160011b916000199060031b1c19161760038301555b60808101519283516001600160401b038111610bc457610fc66004850154611f97565b601f81116114c3575b506020601f8211600114611454578192939495600092611449575b50508160011b916000199060031b1c19161760048401555b60a08201519283516001600160401b038111610bc4576110256005830154611f97565b601f8111611402575b506020601f8211600114611393578192939495600092611388575b50508160011b916000199060031b1c19161760058201555b60c08301518051906001600160401b038211610bc4576110846006840154611f97565b601f8111611341575b50602090601f83116001146112cb5791806101809492600b946000926112c0575b50508160011b916000199060031b1c19161760068201555b60e0850151600782015561010085015160088201556009810160018060a01b039081610120880151166bffffffffffffffffffffffff60a01b825416179055600a8201906101408701511681549060ff60a01b610160890151151560a01b16916affffffffffffffffffffff60a81b1617179055019201519182516001600160401b038111610bc4576111598254611f97565b601f8111611278575b506020601f82116001146112125781929394600092611207575b50508160011b916000199060031b1c19161790555b61119c600154612186565b8060015560001981019081116111f157602091817f99a9454438287bd513ed7da46fc0ff0cabc6b573eeafb583a59e01bc2e52ef90604051858152806111e6339588830190611dcd565b0390a3604051908152f35b634e487b7160e01b600052601160045260246000fd5b01519050848061117c565b601f198216908360005260206000209160005b81811061126057509583600195969710611247575b505050811b019055611191565b015160001960f88460031b161c1916905584808061123a565b9192602060018192868b015181550194019201611225565b826000526020600020601f830160051c810191602084106112b6575b601f0160051c01905b8181106112aa5750611162565b6000815560010161129d565b9091508190611294565b0151905087806110ae565b906006840160005260206000209160005b601f19851681106113295750926101809492600192600b9583601f19811610611310575b505050811b0160068201556110c6565b015160001960f88460031b161c19169055878080611300565b919260206001819286850151815501940192016112dc565b600684016000526020600020601f840160051c810160208510611381575b601f830160051c8201811061137557505061108d565b6000815560010161135f565b508061135f565b015190508580611049565b6005830160005260206000209060005b601f19841681106113ea575060019394959683601f198116106113d1575b505050811b016005820155611061565b015160001960f88460031b161c191690558580806113c1565b9091602060018192858b0151815501930191016113a3565b600583016000526020600020601f830160051c810160208410611442575b601f830160051c8201811061143657505061102e565b60008155600101611420565b5080611420565b015190508580610fea565b6004850160005260206000209060005b601f19841681106114ab575060019394959683601f19811610611492575b505050811b016004840155611002565b015160001960f88460031b161c19169055858080611482565b9091602060018192858b015181550193019101611464565b600485016000526020600020601f830160051c810160208410611503575b601f830160051c820181106114f7575050610fcf565b600081556001016114e1565b50806114e1565b015190508580610f8b565b6003840160005260206000209060005b601f198416811061156c575060019394959683601f19811610611553575b505050811b016003830155610fa3565b015160001960f88460031b161c19169055858080611543565b9091602060018192858b015181550193019101611525565b600384016000526020600020601f830160051c8101602084106115c4575b601f830160051c820181106115b8575050610f70565b600081556001016115a2565b50806115a2565b015190508580610f22565b6001830160005260206000209060005b601f198416811061162d575060019394959683601f19811610611614575b505050811b016001820155610f3a565b015160001960f88460031b161c19169055858080611604565b9091602060018192858b0151815501930191016115e6565b600183016000526020600020601f830160051c810160208410611685575b601f830160051c82018110611679575050610f07565b60008155600101611663565b5080611663565b634e487b7160e01b600052600060045260246000fd5b60405162461bcd60e51b815260206004820152601960248201527f416765206d757374206265203138206f7220796f756e676572000000000000006044820152606490fd5b34610a15576060366003190112610a15576001600160401b03600435602435828111610a155761171b9036906004016120e5565b604435838111610a15576117339036906004016120e5565b336000526020916002835260ff604060002054166004811015610bda5760020361198b5760019161176683548610612195565b61177660ff600a61011a88611f49565b600561178186611f49565b50018251878111610bc457806117978354611f97565b94601f9586811161193a575b5087908683116001146118d7576000926118cc575b5050600019600383901b1c191690851b1790555b60066117d786611f49565b5001938151968711610bc4576117ed8554611f97565b838111611886575b5080928711600114611830575094806102789594938193600a98600094610b015750501b916000199060031b1c191617905561026c81611f49565b909591601f198316968560005282600020926000905b89821061186f5750509083929161027897969594600a9910610b4b57505050811b019055610263565b808785968294968601518155019501930190611846565b856000528160002084808a0160051c820192848b106118c3575b0160051c019085905b8281106118b75750506117f5565b600081550185906118a9565b925081926118a0565b0151905089806117b8565b90879350601f1983169185600052896000209260005b8b828210611924575050841161190b575b505050811b0190556117cc565b015160001960f88460031b161c191690558980806118fe565b8385015186558b979095019493840193016118ed565b90915083600052876000208680850160051c8201928a8610611982575b918991869594930160051c01915b8281106119735750506117a3565b60008155859450899101611965565b92508192611957565b60405162461bcd60e51b815260048101849052602760248201527f4f6e6c7920476f7665726e6d656e742063616e20706572666f726d20746869736044820152661030b1ba34b7b760c91b6064820152608490fd5b34610a15576040366003190112610a15576119f96120cf565b602435906004821015610a155760018060a01b0316600052600260205260406000209060ff80198354169116179055600080f35b34610a15576020366003190112610a1557600435600054811015610a1557611a5490611f49565b508054611a6360018301612029565b60028301549092611a7660038201612029565b90611a8360048201612029565b611a8f60058301612029565b92611a9c60068401612029565b93600784015494600885015491600160a01b60019003948560098801541694600a88015497600b01611acd90612029565b996040519c8d9c8d528c6101a06020819201528d01611aeb91611dcd565b9060408d01528b810360608d0152611b0291611dcd565b8a810360808c0152611b1391611dcd565b89810360a08b0152611b2491611dcd565b88810360c08a0152611b3591611dcd565b9460e0880152610100870152610120860152811661014085015260a01c60ff161515610160840152828103610180840152610c9e91611dcd565b34610a15576000366003190112610a15573360005260206002815260ff908160406000205416600481101580610bda578115908115611cfc575b8115611ceb575b8115611cd8575b50611bc291506122a4565b600091600091600154925b838110611c9d5750611bde846123bc565b93611bec6040519586612008565b808552611bfb601f19916123bc565b0160005b818110611c875750505060009060005b838110611c245760405180610c9e8782611ee7565b81600a611c3083611f49565b50015460a01c16611c4a575b611c4590612186565b611c0f565b91611c7f611c4591611c64611c5e86611f49565b506122f0565b611c6e82896123d3565b52611c7981886123d3565b50612186565b929050611c3c565b8290611c91612242565b82828901015201611bff565b82600a611ca983611f49565b50015460a01c16611cc3575b611cbe90612186565b611bcd565b93611cd0611cbe91612186565b949050611cb5565b9050610bda576003611bc2911484611bb7565b809150610bda576002821490611bb0565b5050600181146000611ba9565b34610a15576020366003190112610a1557600435611d25612242565b5033600052600260205260ff604060002054169060048210159182610bda578015928315611dbf575b8315611dae575b8315611d95575b610c9e611d81611c5e85611d6f886122a4565b611d7c6001548210612195565b611f49565b604051918291602083526020830190611e0d565b909250610bda5760039190911490611c5e611d81611d5c565b809350610bda576002811492611d55565b506001811492506000611d4e565b919082519283825260005b848110611df9575050826000602080949584010152601f8019910116010190565b602081830181015184830182015201611dd8565b90611ee49180518252611e8d611e7b611e69611e57611e3b60208601516101a08060208a0152880190611dcd565b6040860151604088015260608601518782036060890152611dcd565b60808501518682036080880152611dcd565b60a084015185820360a0870152611dcd565b60c083015184820360c0860152611dcd565b9160e082015160e0820152610100808301519082015260018060a01b036101208181850151169083015261014090818401511690820152610160808301511515908201526101808092015191818403910152611dcd565b90565b602080820190808352835180925260408301928160408460051b8301019501936000915b848310611f1b5750505050505090565b9091929394958480611f39600193603f198682030187528a51611e0d565b9801930193019194939290611f0b565b906000918254811015611f8357600c90838052027f290decd9548b62a8d60345a988386fc84ba6bc95484008f6362f93160ef3e563019190565b634e487b7160e01b83526032600452602483fd5b90600182811c92168015611fc7575b6020831014611fb157565b634e487b7160e01b600052602260045260246000fd5b91607f1691611fa6565b6101a081019081106001600160401b03821117610bc457604052565b604081019081106001600160401b03821117610bc457604052565b90601f801991011681019081106001600160401b03821117610bc457604052565b906040519182600082549261203d84611f97565b9081845260019485811690816000146120ac5750600114612069575b505061206792500383612008565b565b9093915060005260209081600020936000915b81831061209457505061206793508201013880612059565b8554888401850152948501948794509183019161207c565b91505061206794506020925060ff191682840152151560051b8201013880612059565b600435906001600160a01b0382168203610a1557565b81601f82011215610a15578035906001600160401b038211610bc45760405192612119601f8401601f191660200185612008565b82845260208383010111610a1557816000926020809301838601378301015290565b1561214257565b606460405162461bcd60e51b815260206004820152602060248201527f4f6e6c79204e474f2063616e20706572666f726d207468697320616374696f6e6044820152fd5b60001981146111f15760010190565b1561219c57565b60405162461bcd60e51b8152602060048201526015602482015274149958dbdc9908191bd95cc81b9bdd08195e1a5cdd605a1b6044820152606490fd5b156121e057565b60405162461bcd60e51b81526020600482015260126024820152715265636f726420697320696e61637469766560701b6044820152606490fd5b6040519061222782611fed565b600c82526b6865616c746853746174757360a01b6020830152565b6040519061224f82611fd1565b8161018060009182815260609283602083015280604083015283808301528360808301528360a08301528360c08301528060e08301528061010083015280610120830152806101408301526101608201520152565b156122ab57565b60405162461bcd60e51b815260206004820152601b60248201527f4163636573732064656e6965643a20696e76616c696420726f6c6500000000006044820152606490fd5b906040516122fd81611fd1565b6101806123b7600b83958054855261231760018201612029565b60208601526002810154604086015261233260038201612029565b606086015261234360048201612029565b608086015261235460058201612029565b60a086015261236560068201612029565b60c0860152600781015460e0860152600881015461010086015260098101546001600160a01b03908116610120870152600a82015490811661014087015260a01c60ff16151561016086015201612029565b910152565b6001600160401b038111610bc45760051b60200190565b80518210156123e75760209160051b010190565b634e487b7160e01b600052603260045260246000fdfea26469706673582212203c48b27ab146049f09310c835a99202fa8988d4c32b7d3f968e46d7972df784264736f6c63430008130033",
  "linkReferences": {},
  "deployedLinkReferences": {}
}